{
	"Contracts/Bank.sol": {
		"Bank": {
			"abi": [
				{
					"inputs": [
						{
							"internalType": "address",
							"name": "_tokenaddress",
							"type": "address"
						}
					],
					"stateMutability": "nonpayable",
					"type": "constructor"
				},
				{
					"anonymous": false,
					"inputs": [
						{
							"indexed": false,
							"internalType": "string",
							"name": "message",
							"type": "string"
						}
					],
					"name": "AmountDeposited",
					"type": "event"
				},
				{
					"anonymous": false,
					"inputs": [
						{
							"indexed": false,
							"internalType": "string",
							"name": "message",
							"type": "string"
						}
					],
					"name": "AmountSent",
					"type": "event"
				},
				{
					"inputs": [],
					"name": "Bankallowance",
					"outputs": [
						{
							"internalType": "uint256",
							"name": "",
							"type": "uint256"
						}
					],
					"stateMutability": "view",
					"type": "function"
				},
				{
					"inputs": [],
					"name": "bankBalance",
					"outputs": [
						{
							"internalType": "uint256",
							"name": "",
							"type": "uint256"
						}
					],
					"stateMutability": "view",
					"type": "function"
				},
				{
					"inputs": [
						{
							"internalType": "address",
							"name": "",
							"type": "address"
						}
					],
					"name": "customerBalance",
					"outputs": [
						{
							"internalType": "uint256",
							"name": "",
							"type": "uint256"
						}
					],
					"stateMutability": "view",
					"type": "function"
				},
				{
					"inputs": [
						{
							"internalType": "uint256",
							"name": "_amount",
							"type": "uint256"
						}
					],
					"name": "depositAmount",
					"outputs": [],
					"stateMutability": "payable",
					"type": "function"
				},
				{
					"inputs": [],
					"name": "depositerBalance",
					"outputs": [
						{
							"internalType": "uint256",
							"name": "",
							"type": "uint256"
						}
					],
					"stateMutability": "view",
					"type": "function"
				},
				{
					"inputs": [],
					"name": "token",
					"outputs": [
						{
							"internalType": "contract CreateToken",
							"name": "",
							"type": "address"
						}
					],
					"stateMutability": "view",
					"type": "function"
				},
				{
					"inputs": [
						{
							"internalType": "uint256",
							"name": "_amount",
							"type": "uint256"
						}
					],
					"name": "withdrawAmount",
					"outputs": [],
					"stateMutability": "payable",
					"type": "function"
				}
			],
			"devdoc": {
				"kind": "dev",
				"methods": {},
				"version": 1
			},
			"evm": {
				"assembly": "    /* \"Contracts/Bank.sol\":1375:2890  contract Bank{... */\n  mstore(0x40, 0x80)\n    /* \"Contracts/Bank.sol\":1660:1745  constructor(address _tokenaddress){... */\n  callvalue\n  dup1\n  iszero\n  tag_1\n  jumpi\n  0x00\n  dup1\n  revert\ntag_1:\n  pop\n  mload(0x40)\n  sub(codesize, bytecodeSize)\n  dup1\n  bytecodeSize\n  dup4\n  codecopy\n  dup2\n  dup2\n  add\n  0x40\n  mstore\n  dup2\n  add\n  swap1\n  tag_2\n  swap2\n  swap1\n  tag_3\n  jump\t// in\ntag_2:\n    /* \"Contracts/Bank.sol\":1724:1737  _tokenaddress */\n  dup1\n    /* \"Contracts/Bank.sol\":1704:1709  token */\n  0x00\n  dup1\n    /* \"Contracts/Bank.sol\":1704:1738  token = CreateToken(_tokenaddress) */\n  0x0100\n  exp\n  dup2\n  sload\n  dup2\n  0xffffffffffffffffffffffffffffffffffffffff\n  mul\n  not\n  and\n  swap1\n  dup4\n  0xffffffffffffffffffffffffffffffffffffffff\n  and\n  mul\n  or\n  swap1\n  sstore\n  pop\n    /* \"Contracts/Bank.sol\":1660:1745  constructor(address _tokenaddress){... */\n  pop\n    /* \"Contracts/Bank.sol\":1375:2890  contract Bank{... */\n  jump(tag_6)\n    /* \"#utility.yul\":88:205   */\ntag_8:\n    /* \"#utility.yul\":197:198   */\n  0x00\n    /* \"#utility.yul\":194:195   */\n  dup1\n    /* \"#utility.yul\":187:199   */\n  revert\n    /* \"#utility.yul\":334:460   */\ntag_10:\n    /* \"#utility.yul\":371:378   */\n  0x00\n    /* \"#utility.yul\":411:453   */\n  0xffffffffffffffffffffffffffffffffffffffff\n    /* \"#utility.yul\":404:409   */\n  dup3\n    /* \"#utility.yul\":400:454   */\n  and\n    /* \"#utility.yul\":389:454   */\n  swap1\n  pop\n    /* \"#utility.yul\":334:460   */\n  swap2\n  swap1\n  pop\n  jump\t// out\n    /* \"#utility.yul\":466:562   */\ntag_11:\n    /* \"#utility.yul\":503:510   */\n  0x00\n    /* \"#utility.yul\":532:556   */\n  tag_20\n    /* \"#utility.yul\":550:555   */\n  dup3\n    /* \"#utility.yul\":532:556   */\n  tag_10\n  jump\t// in\ntag_20:\n    /* \"#utility.yul\":521:556   */\n  swap1\n  pop\n    /* \"#utility.yul\":466:562   */\n  swap2\n  swap1\n  pop\n  jump\t// out\n    /* \"#utility.yul\":568:690   */\ntag_12:\n    /* \"#utility.yul\":641:665   */\n  tag_22\n    /* \"#utility.yul\":659:664   */\n  dup2\n    /* \"#utility.yul\":641:665   */\n  tag_11\n  jump\t// in\ntag_22:\n    /* \"#utility.yul\":634:639   */\n  dup2\n    /* \"#utility.yul\":631:666   */\n  eq\n    /* \"#utility.yul\":621:684   */\n  tag_23\n  jumpi\n    /* \"#utility.yul\":680:681   */\n  0x00\n    /* \"#utility.yul\":677:678   */\n  dup1\n    /* \"#utility.yul\":670:682   */\n  revert\n    /* \"#utility.yul\":621:684   */\ntag_23:\n    /* \"#utility.yul\":568:690   */\n  pop\n  jump\t// out\n    /* \"#utility.yul\":696:839   */\ntag_13:\n    /* \"#utility.yul\":753:758   */\n  0x00\n    /* \"#utility.yul\":784:790   */\n  dup2\n    /* \"#utility.yul\":778:791   */\n  mload\n    /* \"#utility.yul\":769:791   */\n  swap1\n  pop\n    /* \"#utility.yul\":800:833   */\n  tag_25\n    /* \"#utility.yul\":827:832   */\n  dup2\n    /* \"#utility.yul\":800:833   */\n  tag_12\n  jump\t// in\ntag_25:\n    /* \"#utility.yul\":696:839   */\n  swap3\n  swap2\n  pop\n  pop\n  jump\t// out\n    /* \"#utility.yul\":845:1196   */\ntag_3:\n    /* \"#utility.yul\":915:921   */\n  0x00\n    /* \"#utility.yul\":964:966   */\n  0x20\n    /* \"#utility.yul\":952:961   */\n  dup3\n    /* \"#utility.yul\":943:950   */\n  dup5\n    /* \"#utility.yul\":939:962   */\n  sub\n    /* \"#utility.yul\":935:967   */\n  slt\n    /* \"#utility.yul\":932:1051   */\n  iszero\n  tag_27\n  jumpi\n    /* \"#utility.yul\":970:1049   */\n  tag_28\n  tag_8\n  jump\t// in\ntag_28:\n    /* \"#utility.yul\":932:1051   */\ntag_27:\n    /* \"#utility.yul\":1090:1091   */\n  0x00\n    /* \"#utility.yul\":1115:1179   */\n  tag_29\n    /* \"#utility.yul\":1171:1178   */\n  dup5\n    /* \"#utility.yul\":1162:1168   */\n  dup3\n    /* \"#utility.yul\":1151:1160   */\n  dup6\n    /* \"#utility.yul\":1147:1169   */\n  add\n    /* \"#utility.yul\":1115:1179   */\n  tag_13\n  jump\t// in\ntag_29:\n    /* \"#utility.yul\":1105:1179   */\n  swap2\n  pop\n    /* \"#utility.yul\":1061:1189   */\n  pop\n    /* \"#utility.yul\":845:1196   */\n  swap3\n  swap2\n  pop\n  pop\n  jump\t// out\n    /* \"Contracts/Bank.sol\":1375:2890  contract Bank{... */\ntag_6:\n  dataSize(sub_0)\n  dup1\n  dataOffset(sub_0)\n  0x00\n  codecopy\n  0x00\n  return\nstop\n\nsub_0: assembly {\n        /* \"Contracts/Bank.sol\":1375:2890  contract Bank{... */\n      mstore(0x40, 0x80)\n      jumpi(tag_1, lt(calldatasize, 0x04))\n      shr(0xe0, calldataload(0x00))\n      dup1\n      0x37ebe47b\n      gt\n      tag_9\n      jumpi\n      dup1\n      0x37ebe47b\n      eq\n      tag_5\n      jumpi\n      dup1\n      0x87f8ab26\n      eq\n      tag_6\n      jumpi\n      dup1\n      0xb4b229ff\n      eq\n      tag_7\n      jumpi\n      dup1\n      0xfc0c546a\n      eq\n      tag_8\n      jumpi\n      jump(tag_1)\n    tag_9:\n      dup1\n      0x0562b9f7\n      eq\n      tag_2\n      jumpi\n      dup1\n      0x28657aa5\n      eq\n      tag_3\n      jumpi\n      dup1\n      0x2d9e0fde\n      eq\n      tag_4\n      jumpi\n    tag_1:\n      0x00\n      dup1\n      revert\n        /* \"Contracts/Bank.sol\":2312:2607  function withdrawAmount(uint256 _amount) public payable checkOwner{... */\n    tag_2:\n      tag_10\n      0x04\n      dup1\n      calldatasize\n      sub\n      dup2\n      add\n      swap1\n      tag_11\n      swap2\n      swap1\n      tag_12\n      jump\t// in\n    tag_11:\n      tag_13\n      jump\t// in\n    tag_10:\n      stop\n        /* \"Contracts/Bank.sol\":1883:2029  function bankBalance() public view checkOwner returns(uint){... */\n    tag_3:\n      callvalue\n      dup1\n      iszero\n      tag_14\n      jumpi\n      0x00\n      dup1\n      revert\n    tag_14:\n      pop\n      tag_15\n      tag_16\n      jump\t// in\n    tag_15:\n      mload(0x40)\n      tag_17\n      swap2\n      swap1\n      tag_18\n      jump\t// in\n    tag_17:\n      mload(0x40)\n      dup1\n      swap2\n      sub\n      swap1\n      return\n        /* \"Contracts/Bank.sol\":2164:2306  function depositerBalance() public view checkOwner returns(uint){... */\n    tag_4:\n      callvalue\n      dup1\n      iszero\n      tag_19\n      jumpi\n      0x00\n      dup1\n      revert\n    tag_19:\n      pop\n      tag_20\n      tag_21\n      jump\t// in\n    tag_20:\n      mload(0x40)\n      tag_22\n      swap2\n      swap1\n      tag_18\n      jump\t// in\n    tag_22:\n      mload(0x40)\n      dup1\n      swap2\n      sub\n      swap1\n      return\n        /* \"Contracts/Bank.sol\":1526:1573  mapping(address => uint) public customerBalance */\n    tag_5:\n      callvalue\n      dup1\n      iszero\n      tag_23\n      jumpi\n      0x00\n      dup1\n      revert\n    tag_23:\n      pop\n      tag_24\n      0x04\n      dup1\n      calldatasize\n      sub\n      dup2\n      add\n      swap1\n      tag_25\n      swap2\n      swap1\n      tag_26\n      jump\t// in\n    tag_25:\n      tag_27\n      jump\t// in\n    tag_24:\n      mload(0x40)\n      tag_28\n      swap2\n      swap1\n      tag_18\n      jump\t// in\n    tag_28:\n      mload(0x40)\n      dup1\n      swap2\n      sub\n      swap1\n      return\n        /* \"Contracts/Bank.sol\":2614:2888  function depositAmount(uint256 _amount) public payable {... */\n    tag_6:\n      tag_29\n      0x04\n      dup1\n      calldatasize\n      sub\n      dup2\n      add\n      swap1\n      tag_30\n      swap2\n      swap1\n      tag_12\n      jump\t// in\n    tag_30:\n      tag_31\n      jump\t// in\n    tag_29:\n      stop\n        /* \"Contracts/Bank.sol\":2035:2154  function Bankallowance() public view returns(uint){... */\n    tag_7:\n      callvalue\n      dup1\n      iszero\n      tag_32\n      jumpi\n      0x00\n      dup1\n      revert\n    tag_32:\n      pop\n      tag_33\n      tag_34\n      jump\t// in\n    tag_33:\n      mload(0x40)\n      tag_35\n      swap2\n      swap1\n      tag_18\n      jump\t// in\n    tag_35:\n      mload(0x40)\n      dup1\n      swap2\n      sub\n      swap1\n      return\n        /* \"Contracts/Bank.sol\":1399:1423  CreateToken public token */\n    tag_8:\n      callvalue\n      dup1\n      iszero\n      tag_36\n      jumpi\n      0x00\n      dup1\n      revert\n    tag_36:\n      pop\n      tag_37\n      tag_38\n      jump\t// in\n    tag_37:\n      mload(0x40)\n      tag_39\n      swap2\n      swap1\n      tag_40\n      jump\t// in\n    tag_39:\n      mload(0x40)\n      dup1\n      swap2\n      sub\n      swap1\n      return\n        /* \"Contracts/Bank.sol\":2312:2607  function withdrawAmount(uint256 _amount) public payable checkOwner{... */\n    tag_13:\n        /* \"Contracts/Bank.sol\":1810:1811  0 */\n      0x00\n        /* \"Contracts/Bank.sol\":1790:1812  msg.sender!=address(0) */\n      0xffffffffffffffffffffffffffffffffffffffff\n      and\n        /* \"Contracts/Bank.sol\":1790:1800  msg.sender */\n      caller\n        /* \"Contracts/Bank.sol\":1790:1812  msg.sender!=address(0) */\n      0xffffffffffffffffffffffffffffffffffffffff\n      and\n      sub\n        /* \"Contracts/Bank.sol\":1782:1858  require(msg.sender!=address(0),\"Owner address should not be zeroth Address\") */\n      tag_42\n      jumpi\n      mload(0x40)\n      0x08c379a000000000000000000000000000000000000000000000000000000000\n      dup2\n      mstore\n      0x04\n      add\n      tag_43\n      swap1\n      tag_44\n      jump\t// in\n    tag_43:\n      mload(0x40)\n      dup1\n      swap2\n      sub\n      swap1\n      revert\n    tag_42:\n        /* \"Contracts/Bank.sol\":2424:2431  _amount */\n      dup1\n        /* \"Contracts/Bank.sol\":2388:2403  customerBalance */\n      0x01\n        /* \"Contracts/Bank.sol\":2388:2422  customerBalance[token.depositer()] */\n      0x00\n        /* \"Contracts/Bank.sol\":2404:2409  token */\n      dup1\n      0x00\n      swap1\n      sload\n      swap1\n      0x0100\n      exp\n      swap1\n      div\n      0xffffffffffffffffffffffffffffffffffffffff\n      and\n        /* \"Contracts/Bank.sol\":2404:2419  token.depositer */\n      0xffffffffffffffffffffffffffffffffffffffff\n      and\n      0x2c1ba839\n        /* \"Contracts/Bank.sol\":2404:2421  token.depositer() */\n      mload(0x40)\n      dup2\n      0xffffffff\n      and\n      0xe0\n      shl\n      dup2\n      mstore\n      0x04\n      add\n      0x20\n      mload(0x40)\n      dup1\n      dup4\n      sub\n      dup2\n      dup7\n      gas\n      staticcall\n      iszero\n      dup1\n      iszero\n      tag_47\n      jumpi\n      returndatasize\n      0x00\n      dup1\n      returndatacopy\n      revert(0x00, returndatasize)\n    tag_47:\n      pop\n      pop\n      pop\n      pop\n      mload(0x40)\n      returndatasize\n      not(0x1f)\n      0x1f\n      dup3\n      add\n      and\n      dup3\n      add\n      dup1\n      0x40\n      mstore\n      pop\n      dup2\n      add\n      swap1\n      tag_48\n      swap2\n      swap1\n      tag_49\n      jump\t// in\n    tag_48:\n        /* \"Contracts/Bank.sol\":2388:2422  customerBalance[token.depositer()] */\n      0xffffffffffffffffffffffffffffffffffffffff\n      and\n      0xffffffffffffffffffffffffffffffffffffffff\n      and\n      dup2\n      mstore\n      0x20\n      add\n      swap1\n      dup2\n      mstore\n      0x20\n      add\n      0x00\n      keccak256\n      0x00\n        /* \"Contracts/Bank.sol\":2388:2431  customerBalance[token.depositer()]-=_amount */\n      dup3\n      dup3\n      sload\n      tag_50\n      swap2\n      swap1\n      tag_51\n      jump\t// in\n    tag_50:\n      swap3\n      pop\n      pop\n      dup2\n      swap1\n      sstore\n      pop\n        /* \"Contracts/Bank.sol\":2474:2479  token */\n      0x00\n      dup1\n      sload\n      swap1\n      0x0100\n      exp\n      swap1\n      div\n      0xffffffffffffffffffffffffffffffffffffffff\n      and\n        /* \"Contracts/Bank.sol\":2474:2492  token.transferFrom */\n      0xffffffffffffffffffffffffffffffffffffffff\n      and\n      0x23b872dd\n        /* \"Contracts/Bank.sol\":2501:2505  this */\n      address\n        /* \"Contracts/Bank.sol\":2515:2520  token */\n      0x00\n      dup1\n      sload\n      swap1\n      0x0100\n      exp\n      swap1\n      div\n      0xffffffffffffffffffffffffffffffffffffffff\n      and\n        /* \"Contracts/Bank.sol\":2515:2530  token.depositer */\n      0xffffffffffffffffffffffffffffffffffffffff\n      and\n      0x2c1ba839\n        /* \"Contracts/Bank.sol\":2515:2532  token.depositer() */\n      mload(0x40)\n      dup2\n      0xffffffff\n      and\n      0xe0\n      shl\n      dup2\n      mstore\n      0x04\n      add\n      0x20\n      mload(0x40)\n      dup1\n      dup4\n      sub\n      dup2\n      dup7\n      gas\n      staticcall\n      iszero\n      dup1\n      iszero\n      tag_53\n      jumpi\n      returndatasize\n      0x00\n      dup1\n      returndatacopy\n      revert(0x00, returndatasize)\n    tag_53:\n      pop\n      pop\n      pop\n      pop\n      mload(0x40)\n      returndatasize\n      not(0x1f)\n      0x1f\n      dup3\n      add\n      and\n      dup3\n      add\n      dup1\n      0x40\n      mstore\n      pop\n      dup2\n      add\n      swap1\n      tag_54\n      swap2\n      swap1\n      tag_49\n      jump\t// in\n    tag_54:\n        /* \"Contracts/Bank.sol\":2534:2541  _amount */\n      dup5\n        /* \"Contracts/Bank.sol\":2474:2542  token.transferFrom(address(this),payable(token.depositer()),_amount) */\n      mload(0x40)\n      dup5\n      0xffffffff\n      and\n      0xe0\n      shl\n      dup2\n      mstore\n      0x04\n      add\n      tag_55\n      swap4\n      swap3\n      swap2\n      swap1\n      tag_56\n      jump\t// in\n    tag_55:\n      0x20\n      mload(0x40)\n      dup1\n      dup4\n      sub\n      dup2\n      0x00\n      dup8\n      gas\n      call\n      iszero\n      dup1\n      iszero\n      tag_58\n      jumpi\n      returndatasize\n      0x00\n      dup1\n      returndatacopy\n      revert(0x00, returndatasize)\n    tag_58:\n      pop\n      pop\n      pop\n      pop\n      mload(0x40)\n      returndatasize\n      not(0x1f)\n      0x1f\n      dup3\n      add\n      and\n      dup3\n      add\n      dup1\n      0x40\n      mstore\n      pop\n      dup2\n      add\n      swap1\n      tag_59\n      swap2\n      swap1\n      tag_60\n      jump\t// in\n    tag_59:\n      pop\n        /* \"Contracts/Bank.sol\":2557:2600  AmountSent(\"Amount withdrawn Successfully\") */\n      0xdbafb049923bd24c9143b7aea787bb9133f12c9bc10e8ff7f1be6e2f13028c97\n      mload(0x40)\n      tag_61\n      swap1\n      tag_62\n      jump\t// in\n    tag_61:\n      mload(0x40)\n      dup1\n      swap2\n      sub\n      swap1\n      log1\n        /* \"Contracts/Bank.sol\":2312:2607  function withdrawAmount(uint256 _amount) public payable checkOwner{... */\n      pop\n      jump\t// out\n        /* \"Contracts/Bank.sol\":1883:2029  function bankBalance() public view checkOwner returns(uint){... */\n    tag_16:\n        /* \"Contracts/Bank.sol\":1937:1941  uint */\n      0x00\n        /* \"Contracts/Bank.sol\":1810:1811  0 */\n      dup1\n        /* \"Contracts/Bank.sol\":1790:1812  msg.sender!=address(0) */\n      0xffffffffffffffffffffffffffffffffffffffff\n      and\n        /* \"Contracts/Bank.sol\":1790:1800  msg.sender */\n      caller\n        /* \"Contracts/Bank.sol\":1790:1812  msg.sender!=address(0) */\n      0xffffffffffffffffffffffffffffffffffffffff\n      and\n      sub\n        /* \"Contracts/Bank.sol\":1782:1858  require(msg.sender!=address(0),\"Owner address should not be zeroth Address\") */\n      tag_64\n      jumpi\n      mload(0x40)\n      0x08c379a000000000000000000000000000000000000000000000000000000000\n      dup2\n      mstore\n      0x04\n      add\n      tag_65\n      swap1\n      tag_44\n      jump\t// in\n    tag_65:\n      mload(0x40)\n      dup1\n      swap2\n      sub\n      swap1\n      revert\n    tag_64:\n        /* \"Contracts/Bank.sol\":1963:1968  token */\n      0x00\n      dup1\n      sload\n      swap1\n      0x0100\n      exp\n      swap1\n      div\n      0xffffffffffffffffffffffffffffffffffffffff\n      and\n        /* \"Contracts/Bank.sol\":1963:1978  token.balanceOf */\n      0xffffffffffffffffffffffffffffffffffffffff\n      and\n      0x70a08231\n        /* \"Contracts/Bank.sol\":1987:1991  this */\n      address\n        /* \"Contracts/Bank.sol\":1963:1993  token.balanceOf(address(this)) */\n      mload(0x40)\n      dup3\n      0xffffffff\n      and\n      0xe0\n      shl\n      dup2\n      mstore\n      0x04\n      add\n      tag_67\n      swap2\n      swap1\n      tag_68\n      jump\t// in\n    tag_67:\n      0x20\n      mload(0x40)\n      dup1\n      dup4\n      sub\n      dup2\n      dup7\n      gas\n      staticcall\n      iszero\n      dup1\n      iszero\n      tag_70\n      jumpi\n      returndatasize\n      0x00\n      dup1\n      returndatacopy\n      revert(0x00, returndatasize)\n    tag_70:\n      pop\n      pop\n      pop\n      pop\n      mload(0x40)\n      returndatasize\n      not(0x1f)\n      0x1f\n      dup3\n      add\n      and\n      dup3\n      add\n      dup1\n      0x40\n      mstore\n      pop\n      dup2\n      add\n      swap1\n      tag_71\n      swap2\n      swap1\n      tag_72\n      jump\t// in\n    tag_71:\n        /* \"Contracts/Bank.sol\":1956:1993  return token.balanceOf(address(this)) */\n      swap1\n      pop\n        /* \"Contracts/Bank.sol\":1883:2029  function bankBalance() public view checkOwner returns(uint){... */\n      swap1\n      jump\t// out\n        /* \"Contracts/Bank.sol\":2164:2306  function depositerBalance() public view checkOwner returns(uint){... */\n    tag_21:\n        /* \"Contracts/Bank.sol\":2223:2227  uint */\n      0x00\n        /* \"Contracts/Bank.sol\":1810:1811  0 */\n      dup1\n        /* \"Contracts/Bank.sol\":1790:1812  msg.sender!=address(0) */\n      0xffffffffffffffffffffffffffffffffffffffff\n      and\n        /* \"Contracts/Bank.sol\":1790:1800  msg.sender */\n      caller\n        /* \"Contracts/Bank.sol\":1790:1812  msg.sender!=address(0) */\n      0xffffffffffffffffffffffffffffffffffffffff\n      and\n      sub\n        /* \"Contracts/Bank.sol\":1782:1858  require(msg.sender!=address(0),\"Owner address should not be zeroth Address\") */\n      tag_74\n      jumpi\n      mload(0x40)\n      0x08c379a000000000000000000000000000000000000000000000000000000000\n      dup2\n      mstore\n      0x04\n      add\n      tag_75\n      swap1\n      tag_44\n      jump\t// in\n    tag_75:\n      mload(0x40)\n      dup1\n      swap2\n      sub\n      swap1\n      revert\n    tag_74:\n        /* \"Contracts/Bank.sol\":2249:2264  customerBalance */\n      0x01\n        /* \"Contracts/Bank.sol\":2249:2276  customerBalance[msg.sender] */\n      0x00\n        /* \"Contracts/Bank.sol\":2265:2275  msg.sender */\n      caller\n        /* \"Contracts/Bank.sol\":2249:2276  customerBalance[msg.sender] */\n      0xffffffffffffffffffffffffffffffffffffffff\n      and\n      0xffffffffffffffffffffffffffffffffffffffff\n      and\n      dup2\n      mstore\n      0x20\n      add\n      swap1\n      dup2\n      mstore\n      0x20\n      add\n      0x00\n      keccak256\n      sload\n        /* \"Contracts/Bank.sol\":2242:2276  return customerBalance[msg.sender] */\n      swap1\n      pop\n        /* \"Contracts/Bank.sol\":2164:2306  function depositerBalance() public view checkOwner returns(uint){... */\n      swap1\n      jump\t// out\n        /* \"Contracts/Bank.sol\":1526:1573  mapping(address => uint) public customerBalance */\n    tag_27:\n      mstore(0x20, 0x01)\n      dup1\n      0x00\n      mstore\n      keccak256(0x00, 0x40)\n      0x00\n      swap2\n      pop\n      swap1\n      pop\n      sload\n      dup2\n      jump\t// out\n        /* \"Contracts/Bank.sol\":2614:2888  function depositAmount(uint256 _amount) public payable {... */\n    tag_31:\n        /* \"Contracts/Bank.sol\":2715:2722  _amount */\n      dup1\n        /* \"Contracts/Bank.sol\":2679:2694  customerBalance */\n      0x01\n        /* \"Contracts/Bank.sol\":2679:2713  customerBalance[token.depositer()] */\n      0x00\n        /* \"Contracts/Bank.sol\":2695:2700  token */\n      dup1\n      0x00\n      swap1\n      sload\n      swap1\n      0x0100\n      exp\n      swap1\n      div\n      0xffffffffffffffffffffffffffffffffffffffff\n      and\n        /* \"Contracts/Bank.sol\":2695:2710  token.depositer */\n      0xffffffffffffffffffffffffffffffffffffffff\n      and\n      0x2c1ba839\n        /* \"Contracts/Bank.sol\":2695:2712  token.depositer() */\n      mload(0x40)\n      dup2\n      0xffffffff\n      and\n      0xe0\n      shl\n      dup2\n      mstore\n      0x04\n      add\n      0x20\n      mload(0x40)\n      dup1\n      dup4\n      sub\n      dup2\n      dup7\n      gas\n      staticcall\n      iszero\n      dup1\n      iszero\n      tag_79\n      jumpi\n      returndatasize\n      0x00\n      dup1\n      returndatacopy\n      revert(0x00, returndatasize)\n    tag_79:\n      pop\n      pop\n      pop\n      pop\n      mload(0x40)\n      returndatasize\n      not(0x1f)\n      0x1f\n      dup3\n      add\n      and\n      dup3\n      add\n      dup1\n      0x40\n      mstore\n      pop\n      dup2\n      add\n      swap1\n      tag_80\n      swap2\n      swap1\n      tag_49\n      jump\t// in\n    tag_80:\n        /* \"Contracts/Bank.sol\":2679:2713  customerBalance[token.depositer()] */\n      0xffffffffffffffffffffffffffffffffffffffff\n      and\n      0xffffffffffffffffffffffffffffffffffffffff\n      and\n      dup2\n      mstore\n      0x20\n      add\n      swap1\n      dup2\n      mstore\n      0x20\n      add\n      0x00\n      keccak256\n      0x00\n        /* \"Contracts/Bank.sol\":2679:2722  customerBalance[token.depositer()]+=_amount */\n      dup3\n      dup3\n      sload\n      tag_81\n      swap2\n      swap1\n      tag_82\n      jump\t// in\n    tag_81:\n      swap3\n      pop\n      pop\n      dup2\n      swap1\n      sstore\n      pop\n        /* \"Contracts/Bank.sol\":2766:2771  token */\n      0x00\n      dup1\n      sload\n      swap1\n      0x0100\n      exp\n      swap1\n      div\n      0xffffffffffffffffffffffffffffffffffffffff\n      and\n        /* \"Contracts/Bank.sol\":2766:2784  token.transferFrom */\n      0xffffffffffffffffffffffffffffffffffffffff\n      and\n      0x23b872dd\n        /* \"Contracts/Bank.sol\":2785:2795  msg.sender */\n      caller\n        /* \"Contracts/Bank.sol\":2804:2808  this */\n      address\n        /* \"Contracts/Bank.sol\":2810:2817  _amount */\n      dup5\n        /* \"Contracts/Bank.sol\":2766:2818  token.transferFrom(msg.sender,address(this),_amount) */\n      mload(0x40)\n      dup5\n      0xffffffff\n      and\n      0xe0\n      shl\n      dup2\n      mstore\n      0x04\n      add\n      tag_83\n      swap4\n      swap3\n      swap2\n      swap1\n      tag_84\n      jump\t// in\n    tag_83:\n      0x20\n      mload(0x40)\n      dup1\n      dup4\n      sub\n      dup2\n      0x00\n      dup8\n      gas\n      call\n      iszero\n      dup1\n      iszero\n      tag_86\n      jumpi\n      returndatasize\n      0x00\n      dup1\n      returndatacopy\n      revert(0x00, returndatasize)\n    tag_86:\n      pop\n      pop\n      pop\n      pop\n      mload(0x40)\n      returndatasize\n      not(0x1f)\n      0x1f\n      dup3\n      add\n      and\n      dup3\n      add\n      dup1\n      0x40\n      mstore\n      pop\n      dup2\n      add\n      swap1\n      tag_87\n      swap2\n      swap1\n      tag_60\n      jump\t// in\n    tag_87:\n      pop\n        /* \"Contracts/Bank.sol\":2833:2881  AmountDeposited(\"Amount Deposited Successfully\") */\n      0xc4c608ffb35dc0e1634262d5c291ba82d2ae94450421c1c4ed53d72cddfd98c7\n      mload(0x40)\n      tag_88\n      swap1\n      tag_89\n      jump\t// in\n    tag_88:\n      mload(0x40)\n      dup1\n      swap2\n      sub\n      swap1\n      log1\n        /* \"Contracts/Bank.sol\":2614:2888  function depositAmount(uint256 _amount) public payable {... */\n      pop\n      jump\t// out\n        /* \"Contracts/Bank.sol\":2035:2154  function Bankallowance() public view returns(uint){... */\n    tag_34:\n        /* \"Contracts/Bank.sol\":2080:2084  uint */\n      0x00\n        /* \"Contracts/Bank.sol\":2102:2107  token */\n      dup1\n      0x00\n      swap1\n      sload\n      swap1\n      0x0100\n      exp\n      swap1\n      div\n      0xffffffffffffffffffffffffffffffffffffffff\n      and\n        /* \"Contracts/Bank.sol\":2102:2117  token.allowance */\n      0xffffffffffffffffffffffffffffffffffffffff\n      and\n      0xdd62ed3e\n        /* \"Contracts/Bank.sol\":2118:2123  token */\n      0x00\n      dup1\n      sload\n      swap1\n      0x0100\n      exp\n      swap1\n      div\n      0xffffffffffffffffffffffffffffffffffffffff\n      and\n        /* \"Contracts/Bank.sol\":2118:2133  token.depositer */\n      0xffffffffffffffffffffffffffffffffffffffff\n      and\n      0x2c1ba839\n        /* \"Contracts/Bank.sol\":2118:2135  token.depositer() */\n      mload(0x40)\n      dup2\n      0xffffffff\n      and\n      0xe0\n      shl\n      dup2\n      mstore\n      0x04\n      add\n      0x20\n      mload(0x40)\n      dup1\n      dup4\n      sub\n      dup2\n      dup7\n      gas\n      staticcall\n      iszero\n      dup1\n      iszero\n      tag_92\n      jumpi\n      returndatasize\n      0x00\n      dup1\n      returndatacopy\n      revert(0x00, returndatasize)\n    tag_92:\n      pop\n      pop\n      pop\n      pop\n      mload(0x40)\n      returndatasize\n      not(0x1f)\n      0x1f\n      dup3\n      add\n      and\n      dup3\n      add\n      dup1\n      0x40\n      mstore\n      pop\n      dup2\n      add\n      swap1\n      tag_93\n      swap2\n      swap1\n      tag_49\n      jump\t// in\n    tag_93:\n        /* \"Contracts/Bank.sol\":2136:2146  msg.sender */\n      caller\n        /* \"Contracts/Bank.sol\":2102:2147  token.allowance(token.depositer(),msg.sender) */\n      mload(0x40)\n      dup4\n      0xffffffff\n      and\n      0xe0\n      shl\n      dup2\n      mstore\n      0x04\n      add\n      tag_94\n      swap3\n      swap2\n      swap1\n      tag_95\n      jump\t// in\n    tag_94:\n      0x20\n      mload(0x40)\n      dup1\n      dup4\n      sub\n      dup2\n      dup7\n      gas\n      staticcall\n      iszero\n      dup1\n      iszero\n      tag_97\n      jumpi\n      returndatasize\n      0x00\n      dup1\n      returndatacopy\n      revert(0x00, returndatasize)\n    tag_97:\n      pop\n      pop\n      pop\n      pop\n      mload(0x40)\n      returndatasize\n      not(0x1f)\n      0x1f\n      dup3\n      add\n      and\n      dup3\n      add\n      dup1\n      0x40\n      mstore\n      pop\n      dup2\n      add\n      swap1\n      tag_98\n      swap2\n      swap1\n      tag_72\n      jump\t// in\n    tag_98:\n        /* \"Contracts/Bank.sol\":2095:2147  return token.allowance(token.depositer(),msg.sender) */\n      swap1\n      pop\n        /* \"Contracts/Bank.sol\":2035:2154  function Bankallowance() public view returns(uint){... */\n      swap1\n      jump\t// out\n        /* \"Contracts/Bank.sol\":1399:1423  CreateToken public token */\n    tag_38:\n      0x00\n      dup1\n      sload\n      swap1\n      0x0100\n      exp\n      swap1\n      div\n      0xffffffffffffffffffffffffffffffffffffffff\n      and\n      dup2\n      jump\t// out\n        /* \"#utility.yul\":88:205   */\n    tag_100:\n        /* \"#utility.yul\":197:198   */\n      0x00\n        /* \"#utility.yul\":194:195   */\n      dup1\n        /* \"#utility.yul\":187:199   */\n      revert\n        /* \"#utility.yul\":334:411   */\n    tag_102:\n        /* \"#utility.yul\":371:378   */\n      0x00\n        /* \"#utility.yul\":400:405   */\n      dup2\n        /* \"#utility.yul\":389:405   */\n      swap1\n      pop\n        /* \"#utility.yul\":334:411   */\n      swap2\n      swap1\n      pop\n      jump\t// out\n        /* \"#utility.yul\":417:539   */\n    tag_103:\n        /* \"#utility.yul\":490:514   */\n      tag_137\n        /* \"#utility.yul\":508:513   */\n      dup2\n        /* \"#utility.yul\":490:514   */\n      tag_102\n      jump\t// in\n    tag_137:\n        /* \"#utility.yul\":483:488   */\n      dup2\n        /* \"#utility.yul\":480:515   */\n      eq\n        /* \"#utility.yul\":470:533   */\n      tag_138\n      jumpi\n        /* \"#utility.yul\":529:530   */\n      0x00\n        /* \"#utility.yul\":526:527   */\n      dup1\n        /* \"#utility.yul\":519:531   */\n      revert\n        /* \"#utility.yul\":470:533   */\n    tag_138:\n        /* \"#utility.yul\":417:539   */\n      pop\n      jump\t// out\n        /* \"#utility.yul\":545:684   */\n    tag_104:\n        /* \"#utility.yul\":591:596   */\n      0x00\n        /* \"#utility.yul\":629:635   */\n      dup2\n        /* \"#utility.yul\":616:636   */\n      calldataload\n        /* \"#utility.yul\":607:636   */\n      swap1\n      pop\n        /* \"#utility.yul\":645:678   */\n      tag_140\n        /* \"#utility.yul\":672:677   */\n      dup2\n        /* \"#utility.yul\":645:678   */\n      tag_103\n      jump\t// in\n    tag_140:\n        /* \"#utility.yul\":545:684   */\n      swap3\n      swap2\n      pop\n      pop\n      jump\t// out\n        /* \"#utility.yul\":690:1019   */\n    tag_12:\n        /* \"#utility.yul\":749:755   */\n      0x00\n        /* \"#utility.yul\":798:800   */\n      0x20\n        /* \"#utility.yul\":786:795   */\n      dup3\n        /* \"#utility.yul\":777:784   */\n      dup5\n        /* \"#utility.yul\":773:796   */\n      sub\n        /* \"#utility.yul\":769:801   */\n      slt\n        /* \"#utility.yul\":766:885   */\n      iszero\n      tag_142\n      jumpi\n        /* \"#utility.yul\":804:883   */\n      tag_143\n      tag_100\n      jump\t// in\n    tag_143:\n        /* \"#utility.yul\":766:885   */\n    tag_142:\n        /* \"#utility.yul\":924:925   */\n      0x00\n        /* \"#utility.yul\":949:1002   */\n      tag_144\n        /* \"#utility.yul\":994:1001   */\n      dup5\n        /* \"#utility.yul\":985:991   */\n      dup3\n        /* \"#utility.yul\":974:983   */\n      dup6\n        /* \"#utility.yul\":970:992   */\n      add\n        /* \"#utility.yul\":949:1002   */\n      tag_104\n      jump\t// in\n    tag_144:\n        /* \"#utility.yul\":939:1002   */\n      swap2\n      pop\n        /* \"#utility.yul\":895:1012   */\n      pop\n        /* \"#utility.yul\":690:1019   */\n      swap3\n      swap2\n      pop\n      pop\n      jump\t// out\n        /* \"#utility.yul\":1025:1143   */\n    tag_105:\n        /* \"#utility.yul\":1112:1136   */\n      tag_146\n        /* \"#utility.yul\":1130:1135   */\n      dup2\n        /* \"#utility.yul\":1112:1136   */\n      tag_102\n      jump\t// in\n    tag_146:\n        /* \"#utility.yul\":1107:1110   */\n      dup3\n        /* \"#utility.yul\":1100:1137   */\n      mstore\n        /* \"#utility.yul\":1025:1143   */\n      pop\n      pop\n      jump\t// out\n        /* \"#utility.yul\":1149:1371   */\n    tag_18:\n        /* \"#utility.yul\":1242:1246   */\n      0x00\n        /* \"#utility.yul\":1280:1282   */\n      0x20\n        /* \"#utility.yul\":1269:1278   */\n      dup3\n        /* \"#utility.yul\":1265:1283   */\n      add\n        /* \"#utility.yul\":1257:1283   */\n      swap1\n      pop\n        /* \"#utility.yul\":1293:1364   */\n      tag_148\n        /* \"#utility.yul\":1361:1362   */\n      0x00\n        /* \"#utility.yul\":1350:1359   */\n      dup4\n        /* \"#utility.yul\":1346:1363   */\n      add\n        /* \"#utility.yul\":1337:1343   */\n      dup5\n        /* \"#utility.yul\":1293:1364   */\n      tag_105\n      jump\t// in\n    tag_148:\n        /* \"#utility.yul\":1149:1371   */\n      swap3\n      swap2\n      pop\n      pop\n      jump\t// out\n        /* \"#utility.yul\":1377:1503   */\n    tag_106:\n        /* \"#utility.yul\":1414:1421   */\n      0x00\n        /* \"#utility.yul\":1454:1496   */\n      0xffffffffffffffffffffffffffffffffffffffff\n        /* \"#utility.yul\":1447:1452   */\n      dup3\n        /* \"#utility.yul\":1443:1497   */\n      and\n        /* \"#utility.yul\":1432:1497   */\n      swap1\n      pop\n        /* \"#utility.yul\":1377:1503   */\n      swap2\n      swap1\n      pop\n      jump\t// out\n        /* \"#utility.yul\":1509:1605   */\n    tag_107:\n        /* \"#utility.yul\":1546:1553   */\n      0x00\n        /* \"#utility.yul\":1575:1599   */\n      tag_151\n        /* \"#utility.yul\":1593:1598   */\n      dup3\n        /* \"#utility.yul\":1575:1599   */\n      tag_106\n      jump\t// in\n    tag_151:\n        /* \"#utility.yul\":1564:1599   */\n      swap1\n      pop\n        /* \"#utility.yul\":1509:1605   */\n      swap2\n      swap1\n      pop\n      jump\t// out\n        /* \"#utility.yul\":1611:1733   */\n    tag_108:\n        /* \"#utility.yul\":1684:1708   */\n      tag_153\n        /* \"#utility.yul\":1702:1707   */\n      dup2\n        /* \"#utility.yul\":1684:1708   */\n      tag_107\n      jump\t// in\n    tag_153:\n        /* \"#utility.yul\":1677:1682   */\n      dup2\n        /* \"#utility.yul\":1674:1709   */\n      eq\n        /* \"#utility.yul\":1664:1727   */\n      tag_154\n      jumpi\n        /* \"#utility.yul\":1723:1724   */\n      0x00\n        /* \"#utility.yul\":1720:1721   */\n      dup1\n        /* \"#utility.yul\":1713:1725   */\n      revert\n        /* \"#utility.yul\":1664:1727   */\n    tag_154:\n        /* \"#utility.yul\":1611:1733   */\n      pop\n      jump\t// out\n        /* \"#utility.yul\":1739:1878   */\n    tag_109:\n        /* \"#utility.yul\":1785:1790   */\n      0x00\n        /* \"#utility.yul\":1823:1829   */\n      dup2\n        /* \"#utility.yul\":1810:1830   */\n      calldataload\n        /* \"#utility.yul\":1801:1830   */\n      swap1\n      pop\n        /* \"#utility.yul\":1839:1872   */\n      tag_156\n        /* \"#utility.yul\":1866:1871   */\n      dup2\n        /* \"#utility.yul\":1839:1872   */\n      tag_108\n      jump\t// in\n    tag_156:\n        /* \"#utility.yul\":1739:1878   */\n      swap3\n      swap2\n      pop\n      pop\n      jump\t// out\n        /* \"#utility.yul\":1884:2213   */\n    tag_26:\n        /* \"#utility.yul\":1943:1949   */\n      0x00\n        /* \"#utility.yul\":1992:1994   */\n      0x20\n        /* \"#utility.yul\":1980:1989   */\n      dup3\n        /* \"#utility.yul\":1971:1978   */\n      dup5\n        /* \"#utility.yul\":1967:1990   */\n      sub\n        /* \"#utility.yul\":1963:1995   */\n      slt\n        /* \"#utility.yul\":1960:2079   */\n      iszero\n      tag_158\n      jumpi\n        /* \"#utility.yul\":1998:2077   */\n      tag_159\n      tag_100\n      jump\t// in\n    tag_159:\n        /* \"#utility.yul\":1960:2079   */\n    tag_158:\n        /* \"#utility.yul\":2118:2119   */\n      0x00\n        /* \"#utility.yul\":2143:2196   */\n      tag_160\n        /* \"#utility.yul\":2188:2195   */\n      dup5\n        /* \"#utility.yul\":2179:2185   */\n      dup3\n        /* \"#utility.yul\":2168:2177   */\n      dup6\n        /* \"#utility.yul\":2164:2186   */\n      add\n        /* \"#utility.yul\":2143:2196   */\n      tag_109\n      jump\t// in\n    tag_160:\n        /* \"#utility.yul\":2133:2196   */\n      swap2\n      pop\n        /* \"#utility.yul\":2089:2206   */\n      pop\n        /* \"#utility.yul\":1884:2213   */\n      swap3\n      swap2\n      pop\n      pop\n      jump\t// out\n        /* \"#utility.yul\":2219:2279   */\n    tag_110:\n        /* \"#utility.yul\":2247:2250   */\n      0x00\n        /* \"#utility.yul\":2268:2273   */\n      dup2\n        /* \"#utility.yul\":2261:2273   */\n      swap1\n      pop\n        /* \"#utility.yul\":2219:2279   */\n      swap2\n      swap1\n      pop\n      jump\t// out\n        /* \"#utility.yul\":2285:2427   */\n    tag_111:\n        /* \"#utility.yul\":2335:2344   */\n      0x00\n        /* \"#utility.yul\":2368:2421   */\n      tag_163\n        /* \"#utility.yul\":2386:2420   */\n      tag_164\n        /* \"#utility.yul\":2395:2419   */\n      tag_165\n        /* \"#utility.yul\":2413:2418   */\n      dup5\n        /* \"#utility.yul\":2395:2419   */\n      tag_106\n      jump\t// in\n    tag_165:\n        /* \"#utility.yul\":2386:2420   */\n      tag_110\n      jump\t// in\n    tag_164:\n        /* \"#utility.yul\":2368:2421   */\n      tag_106\n      jump\t// in\n    tag_163:\n        /* \"#utility.yul\":2355:2421   */\n      swap1\n      pop\n        /* \"#utility.yul\":2285:2427   */\n      swap2\n      swap1\n      pop\n      jump\t// out\n        /* \"#utility.yul\":2433:2559   */\n    tag_112:\n        /* \"#utility.yul\":2483:2492   */\n      0x00\n        /* \"#utility.yul\":2516:2553   */\n      tag_167\n        /* \"#utility.yul\":2547:2552   */\n      dup3\n        /* \"#utility.yul\":2516:2553   */\n      tag_111\n      jump\t// in\n    tag_167:\n        /* \"#utility.yul\":2503:2553   */\n      swap1\n      pop\n        /* \"#utility.yul\":2433:2559   */\n      swap2\n      swap1\n      pop\n      jump\t// out\n        /* \"#utility.yul\":2565:2710   */\n    tag_113:\n        /* \"#utility.yul\":2634:2643   */\n      0x00\n        /* \"#utility.yul\":2667:2704   */\n      tag_169\n        /* \"#utility.yul\":2698:2703   */\n      dup3\n        /* \"#utility.yul\":2667:2704   */\n      tag_112\n      jump\t// in\n    tag_169:\n        /* \"#utility.yul\":2654:2704   */\n      swap1\n      pop\n        /* \"#utility.yul\":2565:2710   */\n      swap2\n      swap1\n      pop\n      jump\t// out\n        /* \"#utility.yul\":2716:2885   */\n    tag_114:\n        /* \"#utility.yul\":2822:2878   */\n      tag_171\n        /* \"#utility.yul\":2872:2877   */\n      dup2\n        /* \"#utility.yul\":2822:2878   */\n      tag_113\n      jump\t// in\n    tag_171:\n        /* \"#utility.yul\":2817:2820   */\n      dup3\n        /* \"#utility.yul\":2810:2879   */\n      mstore\n        /* \"#utility.yul\":2716:2885   */\n      pop\n      pop\n      jump\t// out\n        /* \"#utility.yul\":2891:3151   */\n    tag_40:\n        /* \"#utility.yul\":3003:3007   */\n      0x00\n        /* \"#utility.yul\":3041:3043   */\n      0x20\n        /* \"#utility.yul\":3030:3039   */\n      dup3\n        /* \"#utility.yul\":3026:3044   */\n      add\n        /* \"#utility.yul\":3018:3044   */\n      swap1\n      pop\n        /* \"#utility.yul\":3054:3144   */\n      tag_173\n        /* \"#utility.yul\":3141:3142   */\n      0x00\n        /* \"#utility.yul\":3130:3139   */\n      dup4\n        /* \"#utility.yul\":3126:3143   */\n      add\n        /* \"#utility.yul\":3117:3123   */\n      dup5\n        /* \"#utility.yul\":3054:3144   */\n      tag_114\n      jump\t// in\n    tag_173:\n        /* \"#utility.yul\":2891:3151   */\n      swap3\n      swap2\n      pop\n      pop\n      jump\t// out\n        /* \"#utility.yul\":3157:3326   */\n    tag_115:\n        /* \"#utility.yul\":3241:3252   */\n      0x00\n        /* \"#utility.yul\":3275:3281   */\n      dup3\n        /* \"#utility.yul\":3270:3273   */\n      dup3\n        /* \"#utility.yul\":3263:3282   */\n      mstore\n        /* \"#utility.yul\":3315:3319   */\n      0x20\n        /* \"#utility.yul\":3310:3313   */\n      dup3\n        /* \"#utility.yul\":3306:3320   */\n      add\n        /* \"#utility.yul\":3291:3320   */\n      swap1\n      pop\n        /* \"#utility.yul\":3157:3326   */\n      swap3\n      swap2\n      pop\n      pop\n      jump\t// out\n        /* \"#utility.yul\":3332:3561   */\n    tag_116:\n        /* \"#utility.yul\":3472:3506   */\n      0x4f776e657220616464726573732073686f756c64206e6f74206265207a65726f\n        /* \"#utility.yul\":3468:3469   */\n      0x00\n        /* \"#utility.yul\":3460:3466   */\n      dup3\n        /* \"#utility.yul\":3456:3470   */\n      add\n        /* \"#utility.yul\":3449:3507   */\n      mstore\n        /* \"#utility.yul\":3541:3553   */\n      0x7468204164647265737300000000000000000000000000000000000000000000\n        /* \"#utility.yul\":3536:3538   */\n      0x20\n        /* \"#utility.yul\":3528:3534   */\n      dup3\n        /* \"#utility.yul\":3524:3539   */\n      add\n        /* \"#utility.yul\":3517:3554   */\n      mstore\n        /* \"#utility.yul\":3332:3561   */\n      pop\n      jump\t// out\n        /* \"#utility.yul\":3567:3933   */\n    tag_117:\n        /* \"#utility.yul\":3709:3712   */\n      0x00\n        /* \"#utility.yul\":3730:3797   */\n      tag_177\n        /* \"#utility.yul\":3794:3796   */\n      0x2a\n        /* \"#utility.yul\":3789:3792   */\n      dup4\n        /* \"#utility.yul\":3730:3797   */\n      tag_115\n      jump\t// in\n    tag_177:\n        /* \"#utility.yul\":3723:3797   */\n      swap2\n      pop\n        /* \"#utility.yul\":3806:3899   */\n      tag_178\n        /* \"#utility.yul\":3895:3898   */\n      dup3\n        /* \"#utility.yul\":3806:3899   */\n      tag_116\n      jump\t// in\n    tag_178:\n        /* \"#utility.yul\":3924:3926   */\n      0x40\n        /* \"#utility.yul\":3919:3922   */\n      dup3\n        /* \"#utility.yul\":3915:3927   */\n      add\n        /* \"#utility.yul\":3908:3927   */\n      swap1\n      pop\n        /* \"#utility.yul\":3567:3933   */\n      swap2\n      swap1\n      pop\n      jump\t// out\n        /* \"#utility.yul\":3939:4358   */\n    tag_44:\n        /* \"#utility.yul\":4105:4109   */\n      0x00\n        /* \"#utility.yul\":4143:4145   */\n      0x20\n        /* \"#utility.yul\":4132:4141   */\n      dup3\n        /* \"#utility.yul\":4128:4146   */\n      add\n        /* \"#utility.yul\":4120:4146   */\n      swap1\n      pop\n        /* \"#utility.yul\":4192:4201   */\n      dup2\n        /* \"#utility.yul\":4186:4190   */\n      dup2\n        /* \"#utility.yul\":4182:4202   */\n      sub\n        /* \"#utility.yul\":4178:4179   */\n      0x00\n        /* \"#utility.yul\":4167:4176   */\n      dup4\n        /* \"#utility.yul\":4163:4180   */\n      add\n        /* \"#utility.yul\":4156:4203   */\n      mstore\n        /* \"#utility.yul\":4220:4351   */\n      tag_180\n        /* \"#utility.yul\":4346:4350   */\n      dup2\n        /* \"#utility.yul\":4220:4351   */\n      tag_117\n      jump\t// in\n    tag_180:\n        /* \"#utility.yul\":4212:4351   */\n      swap1\n      pop\n        /* \"#utility.yul\":3939:4358   */\n      swap2\n      swap1\n      pop\n      jump\t// out\n        /* \"#utility.yul\":4364:4507   */\n    tag_118:\n        /* \"#utility.yul\":4421:4426   */\n      0x00\n        /* \"#utility.yul\":4452:4458   */\n      dup2\n        /* \"#utility.yul\":4446:4459   */\n      mload\n        /* \"#utility.yul\":4437:4459   */\n      swap1\n      pop\n        /* \"#utility.yul\":4468:4501   */\n      tag_182\n        /* \"#utility.yul\":4495:4500   */\n      dup2\n        /* \"#utility.yul\":4468:4501   */\n      tag_108\n      jump\t// in\n    tag_182:\n        /* \"#utility.yul\":4364:4507   */\n      swap3\n      swap2\n      pop\n      pop\n      jump\t// out\n        /* \"#utility.yul\":4513:4864   */\n    tag_49:\n        /* \"#utility.yul\":4583:4589   */\n      0x00\n        /* \"#utility.yul\":4632:4634   */\n      0x20\n        /* \"#utility.yul\":4620:4629   */\n      dup3\n        /* \"#utility.yul\":4611:4618   */\n      dup5\n        /* \"#utility.yul\":4607:4630   */\n      sub\n        /* \"#utility.yul\":4603:4635   */\n      slt\n        /* \"#utility.yul\":4600:4719   */\n      iszero\n      tag_184\n      jumpi\n        /* \"#utility.yul\":4638:4717   */\n      tag_185\n      tag_100\n      jump\t// in\n    tag_185:\n        /* \"#utility.yul\":4600:4719   */\n    tag_184:\n        /* \"#utility.yul\":4758:4759   */\n      0x00\n        /* \"#utility.yul\":4783:4847   */\n      tag_186\n        /* \"#utility.yul\":4839:4846   */\n      dup5\n        /* \"#utility.yul\":4830:4836   */\n      dup3\n        /* \"#utility.yul\":4819:4828   */\n      dup6\n        /* \"#utility.yul\":4815:4837   */\n      add\n        /* \"#utility.yul\":4783:4847   */\n      tag_118\n      jump\t// in\n    tag_186:\n        /* \"#utility.yul\":4773:4847   */\n      swap2\n      pop\n        /* \"#utility.yul\":4729:4857   */\n      pop\n        /* \"#utility.yul\":4513:4864   */\n      swap3\n      swap2\n      pop\n      pop\n      jump\t// out\n        /* \"#utility.yul\":4870:5050   */\n    tag_119:\n        /* \"#utility.yul\":4918:4995   */\n      0x4e487b7100000000000000000000000000000000000000000000000000000000\n        /* \"#utility.yul\":4915:4916   */\n      0x00\n        /* \"#utility.yul\":4908:4996   */\n      mstore\n        /* \"#utility.yul\":5015:5019   */\n      0x11\n        /* \"#utility.yul\":5012:5013   */\n      0x04\n        /* \"#utility.yul\":5005:5020   */\n      mstore\n        /* \"#utility.yul\":5039:5043   */\n      0x24\n        /* \"#utility.yul\":5036:5037   */\n      0x00\n        /* \"#utility.yul\":5029:5044   */\n      revert\n        /* \"#utility.yul\":5056:5250   */\n    tag_51:\n        /* \"#utility.yul\":5096:5100   */\n      0x00\n        /* \"#utility.yul\":5116:5136   */\n      tag_189\n        /* \"#utility.yul\":5134:5135   */\n      dup3\n        /* \"#utility.yul\":5116:5136   */\n      tag_102\n      jump\t// in\n    tag_189:\n        /* \"#utility.yul\":5111:5136   */\n      swap2\n      pop\n        /* \"#utility.yul\":5150:5170   */\n      tag_190\n        /* \"#utility.yul\":5168:5169   */\n      dup4\n        /* \"#utility.yul\":5150:5170   */\n      tag_102\n      jump\t// in\n    tag_190:\n        /* \"#utility.yul\":5145:5170   */\n      swap3\n      pop\n        /* \"#utility.yul\":5194:5195   */\n      dup3\n        /* \"#utility.yul\":5191:5192   */\n      dup3\n        /* \"#utility.yul\":5187:5196   */\n      sub\n        /* \"#utility.yul\":5179:5196   */\n      swap1\n      pop\n        /* \"#utility.yul\":5218:5219   */\n      dup2\n        /* \"#utility.yul\":5212:5216   */\n      dup2\n        /* \"#utility.yul\":5209:5220   */\n      gt\n        /* \"#utility.yul\":5206:5243   */\n      iszero\n      tag_191\n      jumpi\n        /* \"#utility.yul\":5223:5241   */\n      tag_192\n      tag_119\n      jump\t// in\n    tag_192:\n        /* \"#utility.yul\":5206:5243   */\n    tag_191:\n        /* \"#utility.yul\":5056:5250   */\n      swap3\n      swap2\n      pop\n      pop\n      jump\t// out\n        /* \"#utility.yul\":5256:5374   */\n    tag_120:\n        /* \"#utility.yul\":5343:5367   */\n      tag_194\n        /* \"#utility.yul\":5361:5366   */\n      dup2\n        /* \"#utility.yul\":5343:5367   */\n      tag_107\n      jump\t// in\n    tag_194:\n        /* \"#utility.yul\":5338:5341   */\n      dup3\n        /* \"#utility.yul\":5331:5368   */\n      mstore\n        /* \"#utility.yul\":5256:5374   */\n      pop\n      pop\n      jump\t// out\n        /* \"#utility.yul\":5380:5514   */\n    tag_121:\n        /* \"#utility.yul\":5438:5447   */\n      0x00\n        /* \"#utility.yul\":5471:5508   */\n      tag_196\n        /* \"#utility.yul\":5502:5507   */\n      dup3\n        /* \"#utility.yul\":5471:5508   */\n      tag_112\n      jump\t// in\n    tag_196:\n        /* \"#utility.yul\":5458:5508   */\n      swap1\n      pop\n        /* \"#utility.yul\":5380:5514   */\n      swap2\n      swap1\n      pop\n      jump\t// out\n        /* \"#utility.yul\":5520:5667   */\n    tag_122:\n        /* \"#utility.yul\":5615:5660   */\n      tag_198\n        /* \"#utility.yul\":5654:5659   */\n      dup2\n        /* \"#utility.yul\":5615:5660   */\n      tag_121\n      jump\t// in\n    tag_198:\n        /* \"#utility.yul\":5610:5613   */\n      dup3\n        /* \"#utility.yul\":5603:5661   */\n      mstore\n        /* \"#utility.yul\":5520:5667   */\n      pop\n      pop\n      jump\t// out\n        /* \"#utility.yul\":5673:6131   */\n    tag_56:\n        /* \"#utility.yul\":5830:5834   */\n      0x00\n        /* \"#utility.yul\":5868:5870   */\n      0x60\n        /* \"#utility.yul\":5857:5866   */\n      dup3\n        /* \"#utility.yul\":5853:5871   */\n      add\n        /* \"#utility.yul\":5845:5871   */\n      swap1\n      pop\n        /* \"#utility.yul\":5881:5952   */\n      tag_200\n        /* \"#utility.yul\":5949:5950   */\n      0x00\n        /* \"#utility.yul\":5938:5947   */\n      dup4\n        /* \"#utility.yul\":5934:5951   */\n      add\n        /* \"#utility.yul\":5925:5931   */\n      dup7\n        /* \"#utility.yul\":5881:5952   */\n      tag_120\n      jump\t// in\n    tag_200:\n        /* \"#utility.yul\":5962:6042   */\n      tag_201\n        /* \"#utility.yul\":6038:6040   */\n      0x20\n        /* \"#utility.yul\":6027:6036   */\n      dup4\n        /* \"#utility.yul\":6023:6041   */\n      add\n        /* \"#utility.yul\":6014:6020   */\n      dup6\n        /* \"#utility.yul\":5962:6042   */\n      tag_122\n      jump\t// in\n    tag_201:\n        /* \"#utility.yul\":6052:6124   */\n      tag_202\n        /* \"#utility.yul\":6120:6122   */\n      0x40\n        /* \"#utility.yul\":6109:6118   */\n      dup4\n        /* \"#utility.yul\":6105:6123   */\n      add\n        /* \"#utility.yul\":6096:6102   */\n      dup5\n        /* \"#utility.yul\":6052:6124   */\n      tag_105\n      jump\t// in\n    tag_202:\n        /* \"#utility.yul\":5673:6131   */\n      swap5\n      swap4\n      pop\n      pop\n      pop\n      pop\n      jump\t// out\n        /* \"#utility.yul\":6137:6227   */\n    tag_123:\n        /* \"#utility.yul\":6171:6178   */\n      0x00\n        /* \"#utility.yul\":6214:6219   */\n      dup2\n        /* \"#utility.yul\":6207:6220   */\n      iszero\n        /* \"#utility.yul\":6200:6221   */\n      iszero\n        /* \"#utility.yul\":6189:6221   */\n      swap1\n      pop\n        /* \"#utility.yul\":6137:6227   */\n      swap2\n      swap1\n      pop\n      jump\t// out\n        /* \"#utility.yul\":6233:6349   */\n    tag_124:\n        /* \"#utility.yul\":6303:6324   */\n      tag_205\n        /* \"#utility.yul\":6318:6323   */\n      dup2\n        /* \"#utility.yul\":6303:6324   */\n      tag_123\n      jump\t// in\n    tag_205:\n        /* \"#utility.yul\":6296:6301   */\n      dup2\n        /* \"#utility.yul\":6293:6325   */\n      eq\n        /* \"#utility.yul\":6283:6343   */\n      tag_206\n      jumpi\n        /* \"#utility.yul\":6339:6340   */\n      0x00\n        /* \"#utility.yul\":6336:6337   */\n      dup1\n        /* \"#utility.yul\":6329:6341   */\n      revert\n        /* \"#utility.yul\":6283:6343   */\n    tag_206:\n        /* \"#utility.yul\":6233:6349   */\n      pop\n      jump\t// out\n        /* \"#utility.yul\":6355:6492   */\n    tag_125:\n        /* \"#utility.yul\":6409:6414   */\n      0x00\n        /* \"#utility.yul\":6440:6446   */\n      dup2\n        /* \"#utility.yul\":6434:6447   */\n      mload\n        /* \"#utility.yul\":6425:6447   */\n      swap1\n      pop\n        /* \"#utility.yul\":6456:6486   */\n      tag_208\n        /* \"#utility.yul\":6480:6485   */\n      dup2\n        /* \"#utility.yul\":6456:6486   */\n      tag_124\n      jump\t// in\n    tag_208:\n        /* \"#utility.yul\":6355:6492   */\n      swap3\n      swap2\n      pop\n      pop\n      jump\t// out\n        /* \"#utility.yul\":6498:6843   */\n    tag_60:\n        /* \"#utility.yul\":6565:6571   */\n      0x00\n        /* \"#utility.yul\":6614:6616   */\n      0x20\n        /* \"#utility.yul\":6602:6611   */\n      dup3\n        /* \"#utility.yul\":6593:6600   */\n      dup5\n        /* \"#utility.yul\":6589:6612   */\n      sub\n        /* \"#utility.yul\":6585:6617   */\n      slt\n        /* \"#utility.yul\":6582:6701   */\n      iszero\n      tag_210\n      jumpi\n        /* \"#utility.yul\":6620:6699   */\n      tag_211\n      tag_100\n      jump\t// in\n    tag_211:\n        /* \"#utility.yul\":6582:6701   */\n    tag_210:\n        /* \"#utility.yul\":6740:6741   */\n      0x00\n        /* \"#utility.yul\":6765:6826   */\n      tag_212\n        /* \"#utility.yul\":6818:6825   */\n      dup5\n        /* \"#utility.yul\":6809:6815   */\n      dup3\n        /* \"#utility.yul\":6798:6807   */\n      dup6\n        /* \"#utility.yul\":6794:6816   */\n      add\n        /* \"#utility.yul\":6765:6826   */\n      tag_125\n      jump\t// in\n    tag_212:\n        /* \"#utility.yul\":6755:6826   */\n      swap2\n      pop\n        /* \"#utility.yul\":6711:6836   */\n      pop\n        /* \"#utility.yul\":6498:6843   */\n      swap3\n      swap2\n      pop\n      pop\n      jump\t// out\n        /* \"#utility.yul\":6849:7028   */\n    tag_126:\n        /* \"#utility.yul\":6989:7020   */\n      0x416d6f756e742077697468647261776e205375636365737366756c6c79000000\n        /* \"#utility.yul\":6985:6986   */\n      0x00\n        /* \"#utility.yul\":6977:6983   */\n      dup3\n        /* \"#utility.yul\":6973:6987   */\n      add\n        /* \"#utility.yul\":6966:7021   */\n      mstore\n        /* \"#utility.yul\":6849:7028   */\n      pop\n      jump\t// out\n        /* \"#utility.yul\":7034:7400   */\n    tag_127:\n        /* \"#utility.yul\":7176:7179   */\n      0x00\n        /* \"#utility.yul\":7197:7264   */\n      tag_215\n        /* \"#utility.yul\":7261:7263   */\n      0x1d\n        /* \"#utility.yul\":7256:7259   */\n      dup4\n        /* \"#utility.yul\":7197:7264   */\n      tag_115\n      jump\t// in\n    tag_215:\n        /* \"#utility.yul\":7190:7264   */\n      swap2\n      pop\n        /* \"#utility.yul\":7273:7366   */\n      tag_216\n        /* \"#utility.yul\":7362:7365   */\n      dup3\n        /* \"#utility.yul\":7273:7366   */\n      tag_126\n      jump\t// in\n    tag_216:\n        /* \"#utility.yul\":7391:7393   */\n      0x20\n        /* \"#utility.yul\":7386:7389   */\n      dup3\n        /* \"#utility.yul\":7382:7394   */\n      add\n        /* \"#utility.yul\":7375:7394   */\n      swap1\n      pop\n        /* \"#utility.yul\":7034:7400   */\n      swap2\n      swap1\n      pop\n      jump\t// out\n        /* \"#utility.yul\":7406:7825   */\n    tag_62:\n        /* \"#utility.yul\":7572:7576   */\n      0x00\n        /* \"#utility.yul\":7610:7612   */\n      0x20\n        /* \"#utility.yul\":7599:7608   */\n      dup3\n        /* \"#utility.yul\":7595:7613   */\n      add\n        /* \"#utility.yul\":7587:7613   */\n      swap1\n      pop\n        /* \"#utility.yul\":7659:7668   */\n      dup2\n        /* \"#utility.yul\":7653:7657   */\n      dup2\n        /* \"#utility.yul\":7649:7669   */\n      sub\n        /* \"#utility.yul\":7645:7646   */\n      0x00\n        /* \"#utility.yul\":7634:7643   */\n      dup4\n        /* \"#utility.yul\":7630:7647   */\n      add\n        /* \"#utility.yul\":7623:7670   */\n      mstore\n        /* \"#utility.yul\":7687:7818   */\n      tag_218\n        /* \"#utility.yul\":7813:7817   */\n      dup2\n        /* \"#utility.yul\":7687:7818   */\n      tag_127\n      jump\t// in\n    tag_218:\n        /* \"#utility.yul\":7679:7818   */\n      swap1\n      pop\n        /* \"#utility.yul\":7406:7825   */\n      swap2\n      swap1\n      pop\n      jump\t// out\n        /* \"#utility.yul\":7831:8053   */\n    tag_68:\n        /* \"#utility.yul\":7924:7928   */\n      0x00\n        /* \"#utility.yul\":7962:7964   */\n      0x20\n        /* \"#utility.yul\":7951:7960   */\n      dup3\n        /* \"#utility.yul\":7947:7965   */\n      add\n        /* \"#utility.yul\":7939:7965   */\n      swap1\n      pop\n        /* \"#utility.yul\":7975:8046   */\n      tag_220\n        /* \"#utility.yul\":8043:8044   */\n      0x00\n        /* \"#utility.yul\":8032:8041   */\n      dup4\n        /* \"#utility.yul\":8028:8045   */\n      add\n        /* \"#utility.yul\":8019:8025   */\n      dup5\n        /* \"#utility.yul\":7975:8046   */\n      tag_120\n      jump\t// in\n    tag_220:\n        /* \"#utility.yul\":7831:8053   */\n      swap3\n      swap2\n      pop\n      pop\n      jump\t// out\n        /* \"#utility.yul\":8059:8202   */\n    tag_128:\n        /* \"#utility.yul\":8116:8121   */\n      0x00\n        /* \"#utility.yul\":8147:8153   */\n      dup2\n        /* \"#utility.yul\":8141:8154   */\n      mload\n        /* \"#utility.yul\":8132:8154   */\n      swap1\n      pop\n        /* \"#utility.yul\":8163:8196   */\n      tag_222\n        /* \"#utility.yul\":8190:8195   */\n      dup2\n        /* \"#utility.yul\":8163:8196   */\n      tag_103\n      jump\t// in\n    tag_222:\n        /* \"#utility.yul\":8059:8202   */\n      swap3\n      swap2\n      pop\n      pop\n      jump\t// out\n        /* \"#utility.yul\":8208:8559   */\n    tag_72:\n        /* \"#utility.yul\":8278:8284   */\n      0x00\n        /* \"#utility.yul\":8327:8329   */\n      0x20\n        /* \"#utility.yul\":8315:8324   */\n      dup3\n        /* \"#utility.yul\":8306:8313   */\n      dup5\n        /* \"#utility.yul\":8302:8325   */\n      sub\n        /* \"#utility.yul\":8298:8330   */\n      slt\n        /* \"#utility.yul\":8295:8414   */\n      iszero\n      tag_224\n      jumpi\n        /* \"#utility.yul\":8333:8412   */\n      tag_225\n      tag_100\n      jump\t// in\n    tag_225:\n        /* \"#utility.yul\":8295:8414   */\n    tag_224:\n        /* \"#utility.yul\":8453:8454   */\n      0x00\n        /* \"#utility.yul\":8478:8542   */\n      tag_226\n        /* \"#utility.yul\":8534:8541   */\n      dup5\n        /* \"#utility.yul\":8525:8531   */\n      dup3\n        /* \"#utility.yul\":8514:8523   */\n      dup6\n        /* \"#utility.yul\":8510:8532   */\n      add\n        /* \"#utility.yul\":8478:8542   */\n      tag_128\n      jump\t// in\n    tag_226:\n        /* \"#utility.yul\":8468:8542   */\n      swap2\n      pop\n        /* \"#utility.yul\":8424:8552   */\n      pop\n        /* \"#utility.yul\":8208:8559   */\n      swap3\n      swap2\n      pop\n      pop\n      jump\t// out\n        /* \"#utility.yul\":8565:8756   */\n    tag_82:\n        /* \"#utility.yul\":8605:8608   */\n      0x00\n        /* \"#utility.yul\":8624:8644   */\n      tag_228\n        /* \"#utility.yul\":8642:8643   */\n      dup3\n        /* \"#utility.yul\":8624:8644   */\n      tag_102\n      jump\t// in\n    tag_228:\n        /* \"#utility.yul\":8619:8644   */\n      swap2\n      pop\n        /* \"#utility.yul\":8658:8678   */\n      tag_229\n        /* \"#utility.yul\":8676:8677   */\n      dup4\n        /* \"#utility.yul\":8658:8678   */\n      tag_102\n      jump\t// in\n    tag_229:\n        /* \"#utility.yul\":8653:8678   */\n      swap3\n      pop\n        /* \"#utility.yul\":8701:8702   */\n      dup3\n        /* \"#utility.yul\":8698:8699   */\n      dup3\n        /* \"#utility.yul\":8694:8703   */\n      add\n        /* \"#utility.yul\":8687:8703   */\n      swap1\n      pop\n        /* \"#utility.yul\":8722:8725   */\n      dup1\n        /* \"#utility.yul\":8719:8720   */\n      dup3\n        /* \"#utility.yul\":8716:8726   */\n      gt\n        /* \"#utility.yul\":8713:8749   */\n      iszero\n      tag_230\n      jumpi\n        /* \"#utility.yul\":8729:8747   */\n      tag_231\n      tag_119\n      jump\t// in\n    tag_231:\n        /* \"#utility.yul\":8713:8749   */\n    tag_230:\n        /* \"#utility.yul\":8565:8756   */\n      swap3\n      swap2\n      pop\n      pop\n      jump\t// out\n        /* \"#utility.yul\":8762:9204   */\n    tag_84:\n        /* \"#utility.yul\":8911:8915   */\n      0x00\n        /* \"#utility.yul\":8949:8951   */\n      0x60\n        /* \"#utility.yul\":8938:8947   */\n      dup3\n        /* \"#utility.yul\":8934:8952   */\n      add\n        /* \"#utility.yul\":8926:8952   */\n      swap1\n      pop\n        /* \"#utility.yul\":8962:9033   */\n      tag_233\n        /* \"#utility.yul\":9030:9031   */\n      0x00\n        /* \"#utility.yul\":9019:9028   */\n      dup4\n        /* \"#utility.yul\":9015:9032   */\n      add\n        /* \"#utility.yul\":9006:9012   */\n      dup7\n        /* \"#utility.yul\":8962:9033   */\n      tag_120\n      jump\t// in\n    tag_233:\n        /* \"#utility.yul\":9043:9115   */\n      tag_234\n        /* \"#utility.yul\":9111:9113   */\n      0x20\n        /* \"#utility.yul\":9100:9109   */\n      dup4\n        /* \"#utility.yul\":9096:9114   */\n      add\n        /* \"#utility.yul\":9087:9093   */\n      dup6\n        /* \"#utility.yul\":9043:9115   */\n      tag_120\n      jump\t// in\n    tag_234:\n        /* \"#utility.yul\":9125:9197   */\n      tag_235\n        /* \"#utility.yul\":9193:9195   */\n      0x40\n        /* \"#utility.yul\":9182:9191   */\n      dup4\n        /* \"#utility.yul\":9178:9196   */\n      add\n        /* \"#utility.yul\":9169:9175   */\n      dup5\n        /* \"#utility.yul\":9125:9197   */\n      tag_105\n      jump\t// in\n    tag_235:\n        /* \"#utility.yul\":8762:9204   */\n      swap5\n      swap4\n      pop\n      pop\n      pop\n      pop\n      jump\t// out\n        /* \"#utility.yul\":9210:9389   */\n    tag_129:\n        /* \"#utility.yul\":9350:9381   */\n      0x416d6f756e74204465706f7369746564205375636365737366756c6c79000000\n        /* \"#utility.yul\":9346:9347   */\n      0x00\n        /* \"#utility.yul\":9338:9344   */\n      dup3\n        /* \"#utility.yul\":9334:9348   */\n      add\n        /* \"#utility.yul\":9327:9382   */\n      mstore\n        /* \"#utility.yul\":9210:9389   */\n      pop\n      jump\t// out\n        /* \"#utility.yul\":9395:9761   */\n    tag_130:\n        /* \"#utility.yul\":9537:9540   */\n      0x00\n        /* \"#utility.yul\":9558:9625   */\n      tag_238\n        /* \"#utility.yul\":9622:9624   */\n      0x1d\n        /* \"#utility.yul\":9617:9620   */\n      dup4\n        /* \"#utility.yul\":9558:9625   */\n      tag_115\n      jump\t// in\n    tag_238:\n        /* \"#utility.yul\":9551:9625   */\n      swap2\n      pop\n        /* \"#utility.yul\":9634:9727   */\n      tag_239\n        /* \"#utility.yul\":9723:9726   */\n      dup3\n        /* \"#utility.yul\":9634:9727   */\n      tag_129\n      jump\t// in\n    tag_239:\n        /* \"#utility.yul\":9752:9754   */\n      0x20\n        /* \"#utility.yul\":9747:9750   */\n      dup3\n        /* \"#utility.yul\":9743:9755   */\n      add\n        /* \"#utility.yul\":9736:9755   */\n      swap1\n      pop\n        /* \"#utility.yul\":9395:9761   */\n      swap2\n      swap1\n      pop\n      jump\t// out\n        /* \"#utility.yul\":9767:10186   */\n    tag_89:\n        /* \"#utility.yul\":9933:9937   */\n      0x00\n        /* \"#utility.yul\":9971:9973   */\n      0x20\n        /* \"#utility.yul\":9960:9969   */\n      dup3\n        /* \"#utility.yul\":9956:9974   */\n      add\n        /* \"#utility.yul\":9948:9974   */\n      swap1\n      pop\n        /* \"#utility.yul\":10020:10029   */\n      dup2\n        /* \"#utility.yul\":10014:10018   */\n      dup2\n        /* \"#utility.yul\":10010:10030   */\n      sub\n        /* \"#utility.yul\":10006:10007   */\n      0x00\n        /* \"#utility.yul\":9995:10004   */\n      dup4\n        /* \"#utility.yul\":9991:10008   */\n      add\n        /* \"#utility.yul\":9984:10031   */\n      mstore\n        /* \"#utility.yul\":10048:10179   */\n      tag_241\n        /* \"#utility.yul\":10174:10178   */\n      dup2\n        /* \"#utility.yul\":10048:10179   */\n      tag_130\n      jump\t// in\n    tag_241:\n        /* \"#utility.yul\":10040:10179   */\n      swap1\n      pop\n        /* \"#utility.yul\":9767:10186   */\n      swap2\n      swap1\n      pop\n      jump\t// out\n        /* \"#utility.yul\":10192:10524   */\n    tag_95:\n        /* \"#utility.yul\":10313:10317   */\n      0x00\n        /* \"#utility.yul\":10351:10353   */\n      0x40\n        /* \"#utility.yul\":10340:10349   */\n      dup3\n        /* \"#utility.yul\":10336:10354   */\n      add\n        /* \"#utility.yul\":10328:10354   */\n      swap1\n      pop\n        /* \"#utility.yul\":10364:10435   */\n      tag_243\n        /* \"#utility.yul\":10432:10433   */\n      0x00\n        /* \"#utility.yul\":10421:10430   */\n      dup4\n        /* \"#utility.yul\":10417:10434   */\n      add\n        /* \"#utility.yul\":10408:10414   */\n      dup6\n        /* \"#utility.yul\":10364:10435   */\n      tag_120\n      jump\t// in\n    tag_243:\n        /* \"#utility.yul\":10445:10517   */\n      tag_244\n        /* \"#utility.yul\":10513:10515   */\n      0x20\n        /* \"#utility.yul\":10502:10511   */\n      dup4\n        /* \"#utility.yul\":10498:10516   */\n      add\n        /* \"#utility.yul\":10489:10495   */\n      dup5\n        /* \"#utility.yul\":10445:10517   */\n      tag_120\n      jump\t// in\n    tag_244:\n        /* \"#utility.yul\":10192:10524   */\n      swap4\n      swap3\n      pop\n      pop\n      pop\n      jump\t// out\n\n    auxdata: 0xa2646970667358221220d08d3127d71957b24057aa43b881c0ade0ac684ffaf14cb7a08f634d840b27b864736f6c63430008120033\n}\n",
				"bytecode": {
					"linkReferences": {},
					"object": "608060405234801561001057600080fd5b506040516200100538038062001005833981810160405281019061003491906100dd565b806000806101000a81548173ffffffffffffffffffffffffffffffffffffffff021916908373ffffffffffffffffffffffffffffffffffffffff1602179055505061010a565b600080fd5b600073ffffffffffffffffffffffffffffffffffffffff82169050919050565b60006100aa8261007f565b9050919050565b6100ba8161009f565b81146100c557600080fd5b50565b6000815190506100d7816100b1565b92915050565b6000602082840312156100f3576100f261007a565b5b6000610101848285016100c8565b91505092915050565b610eeb806200011a6000396000f3fe6080604052600436106100705760003560e01c806337ebe47b1161004e57806337ebe47b146100e757806387f8ab2614610124578063b4b229ff14610140578063fc0c546a1461016b57610070565b80630562b9f71461007557806328657aa5146100915780632d9e0fde146100bc575b600080fd5b61008f600480360381019061008a919061097c565b610196565b005b34801561009d57600080fd5b506100a6610451565b6040516100b391906109b8565b60405180910390f35b3480156100c857600080fd5b506100d1610560565b6040516100de91906109b8565b60405180910390f35b3480156100f357600080fd5b5061010e60048036038101906101099190610a31565b610615565b60405161011b91906109b8565b60405180910390f35b61013e6004803603810190610139919061097c565b61062d565b005b34801561014c57600080fd5b506101556107eb565b60405161016291906109b8565b60405180910390f35b34801561017757600080fd5b5061018061091d565b60405161018d9190610abd565b60405180910390f35b600073ffffffffffffffffffffffffffffffffffffffff163373ffffffffffffffffffffffffffffffffffffffff1603610205576040517f08c379a00000000000000000000000000000000000000000000000000000000081526004016101fc90610b5b565b60405180910390fd5b80600160008060009054906101000a900473ffffffffffffffffffffffffffffffffffffffff1673ffffffffffffffffffffffffffffffffffffffff16632c1ba8396040518163ffffffff1660e01b8152600401602060405180830381865afa158015610276573d6000803e3d6000fd5b505050506040513d601f19601f8201168201806040525081019061029a9190610b90565b73ffffffffffffffffffffffffffffffffffffffff1673ffffffffffffffffffffffffffffffffffffffff16815260200190815260200160002060008282546102e39190610bec565b9250508190555060008054906101000a900473ffffffffffffffffffffffffffffffffffffffff1673ffffffffffffffffffffffffffffffffffffffff166323b872dd3060008054906101000a900473ffffffffffffffffffffffffffffffffffffffff1673ffffffffffffffffffffffffffffffffffffffff16632c1ba8396040518163ffffffff1660e01b8152600401602060405180830381865afa158015610392573d6000803e3d6000fd5b505050506040513d601f19601f820116820180604052508101906103b69190610b90565b846040518463ffffffff1660e01b81526004016103d593929190610c50565b6020604051808303816000875af11580156103f4573d6000803e3d6000fd5b505050506040513d601f19601f820116820180604052508101906104189190610cbf565b507fdbafb049923bd24c9143b7aea787bb9133f12c9bc10e8ff7f1be6e2f13028c9760405161044690610d38565b60405180910390a150565b60008073ffffffffffffffffffffffffffffffffffffffff163373ffffffffffffffffffffffffffffffffffffffff16036104c1576040517f08c379a00000000000000000000000000000000000000000000000000000000081526004016104b890610b5b565b60405180910390fd5b60008054906101000a900473ffffffffffffffffffffffffffffffffffffffff1673ffffffffffffffffffffffffffffffffffffffff166370a08231306040518263ffffffff1660e01b815260040161051a9190610d58565b602060405180830381865afa158015610537573d6000803e3d6000fd5b505050506040513d601f19601f8201168201806040525081019061055b9190610d88565b905090565b60008073ffffffffffffffffffffffffffffffffffffffff163373ffffffffffffffffffffffffffffffffffffffff16036105d0576040517f08c379a00000000000000000000000000000000000000000000000000000000081526004016105c790610b5b565b60405180910390fd5b600160003373ffffffffffffffffffffffffffffffffffffffff1673ffffffffffffffffffffffffffffffffffffffff16815260200190815260200160002054905090565b60016020528060005260406000206000915090505481565b80600160008060009054906101000a900473ffffffffffffffffffffffffffffffffffffffff1673ffffffffffffffffffffffffffffffffffffffff16632c1ba8396040518163ffffffff1660e01b8152600401602060405180830381865afa15801561069e573d6000803e3d6000fd5b505050506040513d601f19601f820116820180604052508101906106c29190610b90565b73ffffffffffffffffffffffffffffffffffffffff1673ffffffffffffffffffffffffffffffffffffffff168152602001908152602001600020600082825461070b9190610db5565b9250508190555060008054906101000a900473ffffffffffffffffffffffffffffffffffffffff1673ffffffffffffffffffffffffffffffffffffffff166323b872dd3330846040518463ffffffff1660e01b815260040161076f93929190610de9565b6020604051808303816000875af115801561078e573d6000803e3d6000fd5b505050506040513d601f19601f820116820180604052508101906107b29190610cbf565b507fc4c608ffb35dc0e1634262d5c291ba82d2ae94450421c1c4ed53d72cddfd98c76040516107e090610e6c565b60405180910390a150565b60008060009054906101000a900473ffffffffffffffffffffffffffffffffffffffff1673ffffffffffffffffffffffffffffffffffffffff1663dd62ed3e60008054906101000a900473ffffffffffffffffffffffffffffffffffffffff1673ffffffffffffffffffffffffffffffffffffffff16632c1ba8396040518163ffffffff1660e01b8152600401602060405180830381865afa158015610895573d6000803e3d6000fd5b505050506040513d601f19601f820116820180604052508101906108b99190610b90565b336040518363ffffffff1660e01b81526004016108d7929190610e8c565b602060405180830381865afa1580156108f4573d6000803e3d6000fd5b505050506040513d601f19601f820116820180604052508101906109189190610d88565b905090565b60008054906101000a900473ffffffffffffffffffffffffffffffffffffffff1681565b600080fd5b6000819050919050565b61095981610946565b811461096457600080fd5b50565b60008135905061097681610950565b92915050565b60006020828403121561099257610991610941565b5b60006109a084828501610967565b91505092915050565b6109b281610946565b82525050565b60006020820190506109cd60008301846109a9565b92915050565b600073ffffffffffffffffffffffffffffffffffffffff82169050919050565b60006109fe826109d3565b9050919050565b610a0e816109f3565b8114610a1957600080fd5b50565b600081359050610a2b81610a05565b92915050565b600060208284031215610a4757610a46610941565b5b6000610a5584828501610a1c565b91505092915050565b6000819050919050565b6000610a83610a7e610a79846109d3565b610a5e565b6109d3565b9050919050565b6000610a9582610a68565b9050919050565b6000610aa782610a8a565b9050919050565b610ab781610a9c565b82525050565b6000602082019050610ad26000830184610aae565b92915050565b600082825260208201905092915050565b7f4f776e657220616464726573732073686f756c64206e6f74206265207a65726f60008201527f7468204164647265737300000000000000000000000000000000000000000000602082015250565b6000610b45602a83610ad8565b9150610b5082610ae9565b604082019050919050565b60006020820190508181036000830152610b7481610b38565b9050919050565b600081519050610b8a81610a05565b92915050565b600060208284031215610ba657610ba5610941565b5b6000610bb484828501610b7b565b91505092915050565b7f4e487b7100000000000000000000000000000000000000000000000000000000600052601160045260246000fd5b6000610bf782610946565b9150610c0283610946565b9250828203905081811115610c1a57610c19610bbd565b5b92915050565b610c29816109f3565b82525050565b6000610c3a82610a8a565b9050919050565b610c4a81610c2f565b82525050565b6000606082019050610c656000830186610c20565b610c726020830185610c41565b610c7f60408301846109a9565b949350505050565b60008115159050919050565b610c9c81610c87565b8114610ca757600080fd5b50565b600081519050610cb981610c93565b92915050565b600060208284031215610cd557610cd4610941565b5b6000610ce384828501610caa565b91505092915050565b7f416d6f756e742077697468647261776e205375636365737366756c6c79000000600082015250565b6000610d22601d83610ad8565b9150610d2d82610cec565b602082019050919050565b60006020820190508181036000830152610d5181610d15565b9050919050565b6000602082019050610d6d6000830184610c20565b92915050565b600081519050610d8281610950565b92915050565b600060208284031215610d9e57610d9d610941565b5b6000610dac84828501610d73565b91505092915050565b6000610dc082610946565b9150610dcb83610946565b9250828201905080821115610de357610de2610bbd565b5b92915050565b6000606082019050610dfe6000830186610c20565b610e0b6020830185610c20565b610e1860408301846109a9565b949350505050565b7f416d6f756e74204465706f7369746564205375636365737366756c6c79000000600082015250565b6000610e56601d83610ad8565b9150610e6182610e20565b602082019050919050565b60006020820190508181036000830152610e8581610e49565b9050919050565b6000604082019050610ea16000830185610c20565b610eae6020830184610c20565b939250505056fea2646970667358221220d08d3127d71957b24057aa43b881c0ade0ac684ffaf14cb7a08f634d840b27b864736f6c63430008120033",
					"opcodes": "PUSH1 0x80 PUSH1 0x40 MSTORE CALLVALUE DUP1 ISZERO PUSH2 0x10 JUMPI PUSH1 0x0 DUP1 REVERT JUMPDEST POP PUSH1 0x40 MLOAD PUSH3 0x1005 CODESIZE SUB DUP1 PUSH3 0x1005 DUP4 CODECOPY DUP2 DUP2 ADD PUSH1 0x40 MSTORE DUP2 ADD SWAP1 PUSH2 0x34 SWAP2 SWAP1 PUSH2 0xDD JUMP JUMPDEST DUP1 PUSH1 0x0 DUP1 PUSH2 0x100 EXP DUP2 SLOAD DUP2 PUSH20 0xFFFFFFFFFFFFFFFFFFFFFFFFFFFFFFFFFFFFFFFF MUL NOT AND SWAP1 DUP4 PUSH20 0xFFFFFFFFFFFFFFFFFFFFFFFFFFFFFFFFFFFFFFFF AND MUL OR SWAP1 SSTORE POP POP PUSH2 0x10A JUMP JUMPDEST PUSH1 0x0 DUP1 REVERT JUMPDEST PUSH1 0x0 PUSH20 0xFFFFFFFFFFFFFFFFFFFFFFFFFFFFFFFFFFFFFFFF DUP3 AND SWAP1 POP SWAP2 SWAP1 POP JUMP JUMPDEST PUSH1 0x0 PUSH2 0xAA DUP3 PUSH2 0x7F JUMP JUMPDEST SWAP1 POP SWAP2 SWAP1 POP JUMP JUMPDEST PUSH2 0xBA DUP2 PUSH2 0x9F JUMP JUMPDEST DUP2 EQ PUSH2 0xC5 JUMPI PUSH1 0x0 DUP1 REVERT JUMPDEST POP JUMP JUMPDEST PUSH1 0x0 DUP2 MLOAD SWAP1 POP PUSH2 0xD7 DUP2 PUSH2 0xB1 JUMP JUMPDEST SWAP3 SWAP2 POP POP JUMP JUMPDEST PUSH1 0x0 PUSH1 0x20 DUP3 DUP5 SUB SLT ISZERO PUSH2 0xF3 JUMPI PUSH2 0xF2 PUSH2 0x7A JUMP JUMPDEST JUMPDEST PUSH1 0x0 PUSH2 0x101 DUP5 DUP3 DUP6 ADD PUSH2 0xC8 JUMP JUMPDEST SWAP2 POP POP SWAP3 SWAP2 POP POP JUMP JUMPDEST PUSH2 0xEEB DUP1 PUSH3 0x11A PUSH1 0x0 CODECOPY PUSH1 0x0 RETURN INVALID PUSH1 0x80 PUSH1 0x40 MSTORE PUSH1 0x4 CALLDATASIZE LT PUSH2 0x70 JUMPI PUSH1 0x0 CALLDATALOAD PUSH1 0xE0 SHR DUP1 PUSH4 0x37EBE47B GT PUSH2 0x4E JUMPI DUP1 PUSH4 0x37EBE47B EQ PUSH2 0xE7 JUMPI DUP1 PUSH4 0x87F8AB26 EQ PUSH2 0x124 JUMPI DUP1 PUSH4 0xB4B229FF EQ PUSH2 0x140 JUMPI DUP1 PUSH4 0xFC0C546A EQ PUSH2 0x16B JUMPI PUSH2 0x70 JUMP JUMPDEST DUP1 PUSH4 0x562B9F7 EQ PUSH2 0x75 JUMPI DUP1 PUSH4 0x28657AA5 EQ PUSH2 0x91 JUMPI DUP1 PUSH4 0x2D9E0FDE EQ PUSH2 0xBC JUMPI JUMPDEST PUSH1 0x0 DUP1 REVERT JUMPDEST PUSH2 0x8F PUSH1 0x4 DUP1 CALLDATASIZE SUB DUP2 ADD SWAP1 PUSH2 0x8A SWAP2 SWAP1 PUSH2 0x97C JUMP JUMPDEST PUSH2 0x196 JUMP JUMPDEST STOP JUMPDEST CALLVALUE DUP1 ISZERO PUSH2 0x9D JUMPI PUSH1 0x0 DUP1 REVERT JUMPDEST POP PUSH2 0xA6 PUSH2 0x451 JUMP JUMPDEST PUSH1 0x40 MLOAD PUSH2 0xB3 SWAP2 SWAP1 PUSH2 0x9B8 JUMP JUMPDEST PUSH1 0x40 MLOAD DUP1 SWAP2 SUB SWAP1 RETURN JUMPDEST CALLVALUE DUP1 ISZERO PUSH2 0xC8 JUMPI PUSH1 0x0 DUP1 REVERT JUMPDEST POP PUSH2 0xD1 PUSH2 0x560 JUMP JUMPDEST PUSH1 0x40 MLOAD PUSH2 0xDE SWAP2 SWAP1 PUSH2 0x9B8 JUMP JUMPDEST PUSH1 0x40 MLOAD DUP1 SWAP2 SUB SWAP1 RETURN JUMPDEST CALLVALUE DUP1 ISZERO PUSH2 0xF3 JUMPI PUSH1 0x0 DUP1 REVERT JUMPDEST POP PUSH2 0x10E PUSH1 0x4 DUP1 CALLDATASIZE SUB DUP2 ADD SWAP1 PUSH2 0x109 SWAP2 SWAP1 PUSH2 0xA31 JUMP JUMPDEST PUSH2 0x615 JUMP JUMPDEST PUSH1 0x40 MLOAD PUSH2 0x11B SWAP2 SWAP1 PUSH2 0x9B8 JUMP JUMPDEST PUSH1 0x40 MLOAD DUP1 SWAP2 SUB SWAP1 RETURN JUMPDEST PUSH2 0x13E PUSH1 0x4 DUP1 CALLDATASIZE SUB DUP2 ADD SWAP1 PUSH2 0x139 SWAP2 SWAP1 PUSH2 0x97C JUMP JUMPDEST PUSH2 0x62D JUMP JUMPDEST STOP JUMPDEST CALLVALUE DUP1 ISZERO PUSH2 0x14C JUMPI PUSH1 0x0 DUP1 REVERT JUMPDEST POP PUSH2 0x155 PUSH2 0x7EB JUMP JUMPDEST PUSH1 0x40 MLOAD PUSH2 0x162 SWAP2 SWAP1 PUSH2 0x9B8 JUMP JUMPDEST PUSH1 0x40 MLOAD DUP1 SWAP2 SUB SWAP1 RETURN JUMPDEST CALLVALUE DUP1 ISZERO PUSH2 0x177 JUMPI PUSH1 0x0 DUP1 REVERT JUMPDEST POP PUSH2 0x180 PUSH2 0x91D JUMP JUMPDEST PUSH1 0x40 MLOAD PUSH2 0x18D SWAP2 SWAP1 PUSH2 0xABD JUMP JUMPDEST PUSH1 0x40 MLOAD DUP1 SWAP2 SUB SWAP1 RETURN JUMPDEST PUSH1 0x0 PUSH20 0xFFFFFFFFFFFFFFFFFFFFFFFFFFFFFFFFFFFFFFFF AND CALLER PUSH20 0xFFFFFFFFFFFFFFFFFFFFFFFFFFFFFFFFFFFFFFFF AND SUB PUSH2 0x205 JUMPI PUSH1 0x40 MLOAD PUSH32 0x8C379A000000000000000000000000000000000000000000000000000000000 DUP2 MSTORE PUSH1 0x4 ADD PUSH2 0x1FC SWAP1 PUSH2 0xB5B JUMP JUMPDEST PUSH1 0x40 MLOAD DUP1 SWAP2 SUB SWAP1 REVERT JUMPDEST DUP1 PUSH1 0x1 PUSH1 0x0 DUP1 PUSH1 0x0 SWAP1 SLOAD SWAP1 PUSH2 0x100 EXP SWAP1 DIV PUSH20 0xFFFFFFFFFFFFFFFFFFFFFFFFFFFFFFFFFFFFFFFF AND PUSH20 0xFFFFFFFFFFFFFFFFFFFFFFFFFFFFFFFFFFFFFFFF AND PUSH4 0x2C1BA839 PUSH1 0x40 MLOAD DUP2 PUSH4 0xFFFFFFFF AND PUSH1 0xE0 SHL DUP2 MSTORE PUSH1 0x4 ADD PUSH1 0x20 PUSH1 0x40 MLOAD DUP1 DUP4 SUB DUP2 DUP7 GAS STATICCALL ISZERO DUP1 ISZERO PUSH2 0x276 JUMPI RETURNDATASIZE PUSH1 0x0 DUP1 RETURNDATACOPY RETURNDATASIZE PUSH1 0x0 REVERT JUMPDEST POP POP POP POP PUSH1 0x40 MLOAD RETURNDATASIZE PUSH1 0x1F NOT PUSH1 0x1F DUP3 ADD AND DUP3 ADD DUP1 PUSH1 0x40 MSTORE POP DUP2 ADD SWAP1 PUSH2 0x29A SWAP2 SWAP1 PUSH2 0xB90 JUMP JUMPDEST PUSH20 0xFFFFFFFFFFFFFFFFFFFFFFFFFFFFFFFFFFFFFFFF AND PUSH20 0xFFFFFFFFFFFFFFFFFFFFFFFFFFFFFFFFFFFFFFFF AND DUP2 MSTORE PUSH1 0x20 ADD SWAP1 DUP2 MSTORE PUSH1 0x20 ADD PUSH1 0x0 KECCAK256 PUSH1 0x0 DUP3 DUP3 SLOAD PUSH2 0x2E3 SWAP2 SWAP1 PUSH2 0xBEC JUMP JUMPDEST SWAP3 POP POP DUP2 SWAP1 SSTORE POP PUSH1 0x0 DUP1 SLOAD SWAP1 PUSH2 0x100 EXP SWAP1 DIV PUSH20 0xFFFFFFFFFFFFFFFFFFFFFFFFFFFFFFFFFFFFFFFF AND PUSH20 0xFFFFFFFFFFFFFFFFFFFFFFFFFFFFFFFFFFFFFFFF AND PUSH4 0x23B872DD ADDRESS PUSH1 0x0 DUP1 SLOAD SWAP1 PUSH2 0x100 EXP SWAP1 DIV PUSH20 0xFFFFFFFFFFFFFFFFFFFFFFFFFFFFFFFFFFFFFFFF AND PUSH20 0xFFFFFFFFFFFFFFFFFFFFFFFFFFFFFFFFFFFFFFFF AND PUSH4 0x2C1BA839 PUSH1 0x40 MLOAD DUP2 PUSH4 0xFFFFFFFF AND PUSH1 0xE0 SHL DUP2 MSTORE PUSH1 0x4 ADD PUSH1 0x20 PUSH1 0x40 MLOAD DUP1 DUP4 SUB DUP2 DUP7 GAS STATICCALL ISZERO DUP1 ISZERO PUSH2 0x392 JUMPI RETURNDATASIZE PUSH1 0x0 DUP1 RETURNDATACOPY RETURNDATASIZE PUSH1 0x0 REVERT JUMPDEST POP POP POP POP PUSH1 0x40 MLOAD RETURNDATASIZE PUSH1 0x1F NOT PUSH1 0x1F DUP3 ADD AND DUP3 ADD DUP1 PUSH1 0x40 MSTORE POP DUP2 ADD SWAP1 PUSH2 0x3B6 SWAP2 SWAP1 PUSH2 0xB90 JUMP JUMPDEST DUP5 PUSH1 0x40 MLOAD DUP5 PUSH4 0xFFFFFFFF AND PUSH1 0xE0 SHL DUP2 MSTORE PUSH1 0x4 ADD PUSH2 0x3D5 SWAP4 SWAP3 SWAP2 SWAP1 PUSH2 0xC50 JUMP JUMPDEST PUSH1 0x20 PUSH1 0x40 MLOAD DUP1 DUP4 SUB DUP2 PUSH1 0x0 DUP8 GAS CALL ISZERO DUP1 ISZERO PUSH2 0x3F4 JUMPI RETURNDATASIZE PUSH1 0x0 DUP1 RETURNDATACOPY RETURNDATASIZE PUSH1 0x0 REVERT JUMPDEST POP POP POP POP PUSH1 0x40 MLOAD RETURNDATASIZE PUSH1 0x1F NOT PUSH1 0x1F DUP3 ADD AND DUP3 ADD DUP1 PUSH1 0x40 MSTORE POP DUP2 ADD SWAP1 PUSH2 0x418 SWAP2 SWAP1 PUSH2 0xCBF JUMP JUMPDEST POP PUSH32 0xDBAFB049923BD24C9143B7AEA787BB9133F12C9BC10E8FF7F1BE6E2F13028C97 PUSH1 0x40 MLOAD PUSH2 0x446 SWAP1 PUSH2 0xD38 JUMP JUMPDEST PUSH1 0x40 MLOAD DUP1 SWAP2 SUB SWAP1 LOG1 POP JUMP JUMPDEST PUSH1 0x0 DUP1 PUSH20 0xFFFFFFFFFFFFFFFFFFFFFFFFFFFFFFFFFFFFFFFF AND CALLER PUSH20 0xFFFFFFFFFFFFFFFFFFFFFFFFFFFFFFFFFFFFFFFF AND SUB PUSH2 0x4C1 JUMPI PUSH1 0x40 MLOAD PUSH32 0x8C379A000000000000000000000000000000000000000000000000000000000 DUP2 MSTORE PUSH1 0x4 ADD PUSH2 0x4B8 SWAP1 PUSH2 0xB5B JUMP JUMPDEST PUSH1 0x40 MLOAD DUP1 SWAP2 SUB SWAP1 REVERT JUMPDEST PUSH1 0x0 DUP1 SLOAD SWAP1 PUSH2 0x100 EXP SWAP1 DIV PUSH20 0xFFFFFFFFFFFFFFFFFFFFFFFFFFFFFFFFFFFFFFFF AND PUSH20 0xFFFFFFFFFFFFFFFFFFFFFFFFFFFFFFFFFFFFFFFF AND PUSH4 0x70A08231 ADDRESS PUSH1 0x40 MLOAD DUP3 PUSH4 0xFFFFFFFF AND PUSH1 0xE0 SHL DUP2 MSTORE PUSH1 0x4 ADD PUSH2 0x51A SWAP2 SWAP1 PUSH2 0xD58 JUMP JUMPDEST PUSH1 0x20 PUSH1 0x40 MLOAD DUP1 DUP4 SUB DUP2 DUP7 GAS STATICCALL ISZERO DUP1 ISZERO PUSH2 0x537 JUMPI RETURNDATASIZE PUSH1 0x0 DUP1 RETURNDATACOPY RETURNDATASIZE PUSH1 0x0 REVERT JUMPDEST POP POP POP POP PUSH1 0x40 MLOAD RETURNDATASIZE PUSH1 0x1F NOT PUSH1 0x1F DUP3 ADD AND DUP3 ADD DUP1 PUSH1 0x40 MSTORE POP DUP2 ADD SWAP1 PUSH2 0x55B SWAP2 SWAP1 PUSH2 0xD88 JUMP JUMPDEST SWAP1 POP SWAP1 JUMP JUMPDEST PUSH1 0x0 DUP1 PUSH20 0xFFFFFFFFFFFFFFFFFFFFFFFFFFFFFFFFFFFFFFFF AND CALLER PUSH20 0xFFFFFFFFFFFFFFFFFFFFFFFFFFFFFFFFFFFFFFFF AND SUB PUSH2 0x5D0 JUMPI PUSH1 0x40 MLOAD PUSH32 0x8C379A000000000000000000000000000000000000000000000000000000000 DUP2 MSTORE PUSH1 0x4 ADD PUSH2 0x5C7 SWAP1 PUSH2 0xB5B JUMP JUMPDEST PUSH1 0x40 MLOAD DUP1 SWAP2 SUB SWAP1 REVERT JUMPDEST PUSH1 0x1 PUSH1 0x0 CALLER PUSH20 0xFFFFFFFFFFFFFFFFFFFFFFFFFFFFFFFFFFFFFFFF AND PUSH20 0xFFFFFFFFFFFFFFFFFFFFFFFFFFFFFFFFFFFFFFFF AND DUP2 MSTORE PUSH1 0x20 ADD SWAP1 DUP2 MSTORE PUSH1 0x20 ADD PUSH1 0x0 KECCAK256 SLOAD SWAP1 POP SWAP1 JUMP JUMPDEST PUSH1 0x1 PUSH1 0x20 MSTORE DUP1 PUSH1 0x0 MSTORE PUSH1 0x40 PUSH1 0x0 KECCAK256 PUSH1 0x0 SWAP2 POP SWAP1 POP SLOAD DUP2 JUMP JUMPDEST DUP1 PUSH1 0x1 PUSH1 0x0 DUP1 PUSH1 0x0 SWAP1 SLOAD SWAP1 PUSH2 0x100 EXP SWAP1 DIV PUSH20 0xFFFFFFFFFFFFFFFFFFFFFFFFFFFFFFFFFFFFFFFF AND PUSH20 0xFFFFFFFFFFFFFFFFFFFFFFFFFFFFFFFFFFFFFFFF AND PUSH4 0x2C1BA839 PUSH1 0x40 MLOAD DUP2 PUSH4 0xFFFFFFFF AND PUSH1 0xE0 SHL DUP2 MSTORE PUSH1 0x4 ADD PUSH1 0x20 PUSH1 0x40 MLOAD DUP1 DUP4 SUB DUP2 DUP7 GAS STATICCALL ISZERO DUP1 ISZERO PUSH2 0x69E JUMPI RETURNDATASIZE PUSH1 0x0 DUP1 RETURNDATACOPY RETURNDATASIZE PUSH1 0x0 REVERT JUMPDEST POP POP POP POP PUSH1 0x40 MLOAD RETURNDATASIZE PUSH1 0x1F NOT PUSH1 0x1F DUP3 ADD AND DUP3 ADD DUP1 PUSH1 0x40 MSTORE POP DUP2 ADD SWAP1 PUSH2 0x6C2 SWAP2 SWAP1 PUSH2 0xB90 JUMP JUMPDEST PUSH20 0xFFFFFFFFFFFFFFFFFFFFFFFFFFFFFFFFFFFFFFFF AND PUSH20 0xFFFFFFFFFFFFFFFFFFFFFFFFFFFFFFFFFFFFFFFF AND DUP2 MSTORE PUSH1 0x20 ADD SWAP1 DUP2 MSTORE PUSH1 0x20 ADD PUSH1 0x0 KECCAK256 PUSH1 0x0 DUP3 DUP3 SLOAD PUSH2 0x70B SWAP2 SWAP1 PUSH2 0xDB5 JUMP JUMPDEST SWAP3 POP POP DUP2 SWAP1 SSTORE POP PUSH1 0x0 DUP1 SLOAD SWAP1 PUSH2 0x100 EXP SWAP1 DIV PUSH20 0xFFFFFFFFFFFFFFFFFFFFFFFFFFFFFFFFFFFFFFFF AND PUSH20 0xFFFFFFFFFFFFFFFFFFFFFFFFFFFFFFFFFFFFFFFF AND PUSH4 0x23B872DD CALLER ADDRESS DUP5 PUSH1 0x40 MLOAD DUP5 PUSH4 0xFFFFFFFF AND PUSH1 0xE0 SHL DUP2 MSTORE PUSH1 0x4 ADD PUSH2 0x76F SWAP4 SWAP3 SWAP2 SWAP1 PUSH2 0xDE9 JUMP JUMPDEST PUSH1 0x20 PUSH1 0x40 MLOAD DUP1 DUP4 SUB DUP2 PUSH1 0x0 DUP8 GAS CALL ISZERO DUP1 ISZERO PUSH2 0x78E JUMPI RETURNDATASIZE PUSH1 0x0 DUP1 RETURNDATACOPY RETURNDATASIZE PUSH1 0x0 REVERT JUMPDEST POP POP POP POP PUSH1 0x40 MLOAD RETURNDATASIZE PUSH1 0x1F NOT PUSH1 0x1F DUP3 ADD AND DUP3 ADD DUP1 PUSH1 0x40 MSTORE POP DUP2 ADD SWAP1 PUSH2 0x7B2 SWAP2 SWAP1 PUSH2 0xCBF JUMP JUMPDEST POP PUSH32 0xC4C608FFB35DC0E1634262D5C291BA82D2AE94450421C1C4ED53D72CDDFD98C7 PUSH1 0x40 MLOAD PUSH2 0x7E0 SWAP1 PUSH2 0xE6C JUMP JUMPDEST PUSH1 0x40 MLOAD DUP1 SWAP2 SUB SWAP1 LOG1 POP JUMP JUMPDEST PUSH1 0x0 DUP1 PUSH1 0x0 SWAP1 SLOAD SWAP1 PUSH2 0x100 EXP SWAP1 DIV PUSH20 0xFFFFFFFFFFFFFFFFFFFFFFFFFFFFFFFFFFFFFFFF AND PUSH20 0xFFFFFFFFFFFFFFFFFFFFFFFFFFFFFFFFFFFFFFFF AND PUSH4 0xDD62ED3E PUSH1 0x0 DUP1 SLOAD SWAP1 PUSH2 0x100 EXP SWAP1 DIV PUSH20 0xFFFFFFFFFFFFFFFFFFFFFFFFFFFFFFFFFFFFFFFF AND PUSH20 0xFFFFFFFFFFFFFFFFFFFFFFFFFFFFFFFFFFFFFFFF AND PUSH4 0x2C1BA839 PUSH1 0x40 MLOAD DUP2 PUSH4 0xFFFFFFFF AND PUSH1 0xE0 SHL DUP2 MSTORE PUSH1 0x4 ADD PUSH1 0x20 PUSH1 0x40 MLOAD DUP1 DUP4 SUB DUP2 DUP7 GAS STATICCALL ISZERO DUP1 ISZERO PUSH2 0x895 JUMPI RETURNDATASIZE PUSH1 0x0 DUP1 RETURNDATACOPY RETURNDATASIZE PUSH1 0x0 REVERT JUMPDEST POP POP POP POP PUSH1 0x40 MLOAD RETURNDATASIZE PUSH1 0x1F NOT PUSH1 0x1F DUP3 ADD AND DUP3 ADD DUP1 PUSH1 0x40 MSTORE POP DUP2 ADD SWAP1 PUSH2 0x8B9 SWAP2 SWAP1 PUSH2 0xB90 JUMP JUMPDEST CALLER PUSH1 0x40 MLOAD DUP4 PUSH4 0xFFFFFFFF AND PUSH1 0xE0 SHL DUP2 MSTORE PUSH1 0x4 ADD PUSH2 0x8D7 SWAP3 SWAP2 SWAP1 PUSH2 0xE8C JUMP JUMPDEST PUSH1 0x20 PUSH1 0x40 MLOAD DUP1 DUP4 SUB DUP2 DUP7 GAS STATICCALL ISZERO DUP1 ISZERO PUSH2 0x8F4 JUMPI RETURNDATASIZE PUSH1 0x0 DUP1 RETURNDATACOPY RETURNDATASIZE PUSH1 0x0 REVERT JUMPDEST POP POP POP POP PUSH1 0x40 MLOAD RETURNDATASIZE PUSH1 0x1F NOT PUSH1 0x1F DUP3 ADD AND DUP3 ADD DUP1 PUSH1 0x40 MSTORE POP DUP2 ADD SWAP1 PUSH2 0x918 SWAP2 SWAP1 PUSH2 0xD88 JUMP JUMPDEST SWAP1 POP SWAP1 JUMP JUMPDEST PUSH1 0x0 DUP1 SLOAD SWAP1 PUSH2 0x100 EXP SWAP1 DIV PUSH20 0xFFFFFFFFFFFFFFFFFFFFFFFFFFFFFFFFFFFFFFFF AND DUP2 JUMP JUMPDEST PUSH1 0x0 DUP1 REVERT JUMPDEST PUSH1 0x0 DUP2 SWAP1 POP SWAP2 SWAP1 POP JUMP JUMPDEST PUSH2 0x959 DUP2 PUSH2 0x946 JUMP JUMPDEST DUP2 EQ PUSH2 0x964 JUMPI PUSH1 0x0 DUP1 REVERT JUMPDEST POP JUMP JUMPDEST PUSH1 0x0 DUP2 CALLDATALOAD SWAP1 POP PUSH2 0x976 DUP2 PUSH2 0x950 JUMP JUMPDEST SWAP3 SWAP2 POP POP JUMP JUMPDEST PUSH1 0x0 PUSH1 0x20 DUP3 DUP5 SUB SLT ISZERO PUSH2 0x992 JUMPI PUSH2 0x991 PUSH2 0x941 JUMP JUMPDEST JUMPDEST PUSH1 0x0 PUSH2 0x9A0 DUP5 DUP3 DUP6 ADD PUSH2 0x967 JUMP JUMPDEST SWAP2 POP POP SWAP3 SWAP2 POP POP JUMP JUMPDEST PUSH2 0x9B2 DUP2 PUSH2 0x946 JUMP JUMPDEST DUP3 MSTORE POP POP JUMP JUMPDEST PUSH1 0x0 PUSH1 0x20 DUP3 ADD SWAP1 POP PUSH2 0x9CD PUSH1 0x0 DUP4 ADD DUP5 PUSH2 0x9A9 JUMP JUMPDEST SWAP3 SWAP2 POP POP JUMP JUMPDEST PUSH1 0x0 PUSH20 0xFFFFFFFFFFFFFFFFFFFFFFFFFFFFFFFFFFFFFFFF DUP3 AND SWAP1 POP SWAP2 SWAP1 POP JUMP JUMPDEST PUSH1 0x0 PUSH2 0x9FE DUP3 PUSH2 0x9D3 JUMP JUMPDEST SWAP1 POP SWAP2 SWAP1 POP JUMP JUMPDEST PUSH2 0xA0E DUP2 PUSH2 0x9F3 JUMP JUMPDEST DUP2 EQ PUSH2 0xA19 JUMPI PUSH1 0x0 DUP1 REVERT JUMPDEST POP JUMP JUMPDEST PUSH1 0x0 DUP2 CALLDATALOAD SWAP1 POP PUSH2 0xA2B DUP2 PUSH2 0xA05 JUMP JUMPDEST SWAP3 SWAP2 POP POP JUMP JUMPDEST PUSH1 0x0 PUSH1 0x20 DUP3 DUP5 SUB SLT ISZERO PUSH2 0xA47 JUMPI PUSH2 0xA46 PUSH2 0x941 JUMP JUMPDEST JUMPDEST PUSH1 0x0 PUSH2 0xA55 DUP5 DUP3 DUP6 ADD PUSH2 0xA1C JUMP JUMPDEST SWAP2 POP POP SWAP3 SWAP2 POP POP JUMP JUMPDEST PUSH1 0x0 DUP2 SWAP1 POP SWAP2 SWAP1 POP JUMP JUMPDEST PUSH1 0x0 PUSH2 0xA83 PUSH2 0xA7E PUSH2 0xA79 DUP5 PUSH2 0x9D3 JUMP JUMPDEST PUSH2 0xA5E JUMP JUMPDEST PUSH2 0x9D3 JUMP JUMPDEST SWAP1 POP SWAP2 SWAP1 POP JUMP JUMPDEST PUSH1 0x0 PUSH2 0xA95 DUP3 PUSH2 0xA68 JUMP JUMPDEST SWAP1 POP SWAP2 SWAP1 POP JUMP JUMPDEST PUSH1 0x0 PUSH2 0xAA7 DUP3 PUSH2 0xA8A JUMP JUMPDEST SWAP1 POP SWAP2 SWAP1 POP JUMP JUMPDEST PUSH2 0xAB7 DUP2 PUSH2 0xA9C JUMP JUMPDEST DUP3 MSTORE POP POP JUMP JUMPDEST PUSH1 0x0 PUSH1 0x20 DUP3 ADD SWAP1 POP PUSH2 0xAD2 PUSH1 0x0 DUP4 ADD DUP5 PUSH2 0xAAE JUMP JUMPDEST SWAP3 SWAP2 POP POP JUMP JUMPDEST PUSH1 0x0 DUP3 DUP3 MSTORE PUSH1 0x20 DUP3 ADD SWAP1 POP SWAP3 SWAP2 POP POP JUMP JUMPDEST PUSH32 0x4F776E657220616464726573732073686F756C64206E6F74206265207A65726F PUSH1 0x0 DUP3 ADD MSTORE PUSH32 0x7468204164647265737300000000000000000000000000000000000000000000 PUSH1 0x20 DUP3 ADD MSTORE POP JUMP JUMPDEST PUSH1 0x0 PUSH2 0xB45 PUSH1 0x2A DUP4 PUSH2 0xAD8 JUMP JUMPDEST SWAP2 POP PUSH2 0xB50 DUP3 PUSH2 0xAE9 JUMP JUMPDEST PUSH1 0x40 DUP3 ADD SWAP1 POP SWAP2 SWAP1 POP JUMP JUMPDEST PUSH1 0x0 PUSH1 0x20 DUP3 ADD SWAP1 POP DUP2 DUP2 SUB PUSH1 0x0 DUP4 ADD MSTORE PUSH2 0xB74 DUP2 PUSH2 0xB38 JUMP JUMPDEST SWAP1 POP SWAP2 SWAP1 POP JUMP JUMPDEST PUSH1 0x0 DUP2 MLOAD SWAP1 POP PUSH2 0xB8A DUP2 PUSH2 0xA05 JUMP JUMPDEST SWAP3 SWAP2 POP POP JUMP JUMPDEST PUSH1 0x0 PUSH1 0x20 DUP3 DUP5 SUB SLT ISZERO PUSH2 0xBA6 JUMPI PUSH2 0xBA5 PUSH2 0x941 JUMP JUMPDEST JUMPDEST PUSH1 0x0 PUSH2 0xBB4 DUP5 DUP3 DUP6 ADD PUSH2 0xB7B JUMP JUMPDEST SWAP2 POP POP SWAP3 SWAP2 POP POP JUMP JUMPDEST PUSH32 0x4E487B7100000000000000000000000000000000000000000000000000000000 PUSH1 0x0 MSTORE PUSH1 0x11 PUSH1 0x4 MSTORE PUSH1 0x24 PUSH1 0x0 REVERT JUMPDEST PUSH1 0x0 PUSH2 0xBF7 DUP3 PUSH2 0x946 JUMP JUMPDEST SWAP2 POP PUSH2 0xC02 DUP4 PUSH2 0x946 JUMP JUMPDEST SWAP3 POP DUP3 DUP3 SUB SWAP1 POP DUP2 DUP2 GT ISZERO PUSH2 0xC1A JUMPI PUSH2 0xC19 PUSH2 0xBBD JUMP JUMPDEST JUMPDEST SWAP3 SWAP2 POP POP JUMP JUMPDEST PUSH2 0xC29 DUP2 PUSH2 0x9F3 JUMP JUMPDEST DUP3 MSTORE POP POP JUMP JUMPDEST PUSH1 0x0 PUSH2 0xC3A DUP3 PUSH2 0xA8A JUMP JUMPDEST SWAP1 POP SWAP2 SWAP1 POP JUMP JUMPDEST PUSH2 0xC4A DUP2 PUSH2 0xC2F JUMP JUMPDEST DUP3 MSTORE POP POP JUMP JUMPDEST PUSH1 0x0 PUSH1 0x60 DUP3 ADD SWAP1 POP PUSH2 0xC65 PUSH1 0x0 DUP4 ADD DUP7 PUSH2 0xC20 JUMP JUMPDEST PUSH2 0xC72 PUSH1 0x20 DUP4 ADD DUP6 PUSH2 0xC41 JUMP JUMPDEST PUSH2 0xC7F PUSH1 0x40 DUP4 ADD DUP5 PUSH2 0x9A9 JUMP JUMPDEST SWAP5 SWAP4 POP POP POP POP JUMP JUMPDEST PUSH1 0x0 DUP2 ISZERO ISZERO SWAP1 POP SWAP2 SWAP1 POP JUMP JUMPDEST PUSH2 0xC9C DUP2 PUSH2 0xC87 JUMP JUMPDEST DUP2 EQ PUSH2 0xCA7 JUMPI PUSH1 0x0 DUP1 REVERT JUMPDEST POP JUMP JUMPDEST PUSH1 0x0 DUP2 MLOAD SWAP1 POP PUSH2 0xCB9 DUP2 PUSH2 0xC93 JUMP JUMPDEST SWAP3 SWAP2 POP POP JUMP JUMPDEST PUSH1 0x0 PUSH1 0x20 DUP3 DUP5 SUB SLT ISZERO PUSH2 0xCD5 JUMPI PUSH2 0xCD4 PUSH2 0x941 JUMP JUMPDEST JUMPDEST PUSH1 0x0 PUSH2 0xCE3 DUP5 DUP3 DUP6 ADD PUSH2 0xCAA JUMP JUMPDEST SWAP2 POP POP SWAP3 SWAP2 POP POP JUMP JUMPDEST PUSH32 0x416D6F756E742077697468647261776E205375636365737366756C6C79000000 PUSH1 0x0 DUP3 ADD MSTORE POP JUMP JUMPDEST PUSH1 0x0 PUSH2 0xD22 PUSH1 0x1D DUP4 PUSH2 0xAD8 JUMP JUMPDEST SWAP2 POP PUSH2 0xD2D DUP3 PUSH2 0xCEC JUMP JUMPDEST PUSH1 0x20 DUP3 ADD SWAP1 POP SWAP2 SWAP1 POP JUMP JUMPDEST PUSH1 0x0 PUSH1 0x20 DUP3 ADD SWAP1 POP DUP2 DUP2 SUB PUSH1 0x0 DUP4 ADD MSTORE PUSH2 0xD51 DUP2 PUSH2 0xD15 JUMP JUMPDEST SWAP1 POP SWAP2 SWAP1 POP JUMP JUMPDEST PUSH1 0x0 PUSH1 0x20 DUP3 ADD SWAP1 POP PUSH2 0xD6D PUSH1 0x0 DUP4 ADD DUP5 PUSH2 0xC20 JUMP JUMPDEST SWAP3 SWAP2 POP POP JUMP JUMPDEST PUSH1 0x0 DUP2 MLOAD SWAP1 POP PUSH2 0xD82 DUP2 PUSH2 0x950 JUMP JUMPDEST SWAP3 SWAP2 POP POP JUMP JUMPDEST PUSH1 0x0 PUSH1 0x20 DUP3 DUP5 SUB SLT ISZERO PUSH2 0xD9E JUMPI PUSH2 0xD9D PUSH2 0x941 JUMP JUMPDEST JUMPDEST PUSH1 0x0 PUSH2 0xDAC DUP5 DUP3 DUP6 ADD PUSH2 0xD73 JUMP JUMPDEST SWAP2 POP POP SWAP3 SWAP2 POP POP JUMP JUMPDEST PUSH1 0x0 PUSH2 0xDC0 DUP3 PUSH2 0x946 JUMP JUMPDEST SWAP2 POP PUSH2 0xDCB DUP4 PUSH2 0x946 JUMP JUMPDEST SWAP3 POP DUP3 DUP3 ADD SWAP1 POP DUP1 DUP3 GT ISZERO PUSH2 0xDE3 JUMPI PUSH2 0xDE2 PUSH2 0xBBD JUMP JUMPDEST JUMPDEST SWAP3 SWAP2 POP POP JUMP JUMPDEST PUSH1 0x0 PUSH1 0x60 DUP3 ADD SWAP1 POP PUSH2 0xDFE PUSH1 0x0 DUP4 ADD DUP7 PUSH2 0xC20 JUMP JUMPDEST PUSH2 0xE0B PUSH1 0x20 DUP4 ADD DUP6 PUSH2 0xC20 JUMP JUMPDEST PUSH2 0xE18 PUSH1 0x40 DUP4 ADD DUP5 PUSH2 0x9A9 JUMP JUMPDEST SWAP5 SWAP4 POP POP POP POP JUMP JUMPDEST PUSH32 0x416D6F756E74204465706F7369746564205375636365737366756C6C79000000 PUSH1 0x0 DUP3 ADD MSTORE POP JUMP JUMPDEST PUSH1 0x0 PUSH2 0xE56 PUSH1 0x1D DUP4 PUSH2 0xAD8 JUMP JUMPDEST SWAP2 POP PUSH2 0xE61 DUP3 PUSH2 0xE20 JUMP JUMPDEST PUSH1 0x20 DUP3 ADD SWAP1 POP SWAP2 SWAP1 POP JUMP JUMPDEST PUSH1 0x0 PUSH1 0x20 DUP3 ADD SWAP1 POP DUP2 DUP2 SUB PUSH1 0x0 DUP4 ADD MSTORE PUSH2 0xE85 DUP2 PUSH2 0xE49 JUMP JUMPDEST SWAP1 POP SWAP2 SWAP1 POP JUMP JUMPDEST PUSH1 0x0 PUSH1 0x40 DUP3 ADD SWAP1 POP PUSH2 0xEA1 PUSH1 0x0 DUP4 ADD DUP6 PUSH2 0xC20 JUMP JUMPDEST PUSH2 0xEAE PUSH1 0x20 DUP4 ADD DUP5 PUSH2 0xC20 JUMP JUMPDEST SWAP4 SWAP3 POP POP POP JUMP INVALID LOG2 PUSH5 0x6970667358 0x22 SLT KECCAK256 0xD0 DUP14 BALANCE 0x27 0xD7 NOT JUMPI 0xB2 BLOCKHASH JUMPI 0xAA NUMBER 0xB8 DUP2 0xC0 0xAD 0xE0 0xAC PUSH9 0x4FFAF14CB7A08F634D DUP5 SIGNEXTEND 0x27 0xB8 PUSH5 0x736F6C6343 STOP ADDMOD SLT STOP CALLER "
				},
				"gasEstimates": {
					"creation": {
						"codeDepositCost": "763800",
						"executionCost": "infinite",
						"totalCost": "infinite"
					},
					"external": {
						"Bankallowance()": "infinite",
						"bankBalance()": "infinite",
						"customerBalance(address)": "2814",
						"depositAmount(uint256)": "infinite",
						"depositerBalance()": "2605",
						"token()": "infinite",
						"withdrawAmount(uint256)": "infinite"
					}
				},
				"methodIdentifiers": {
					"Bankallowance()": "b4b229ff",
					"bankBalance()": "28657aa5",
					"customerBalance(address)": "37ebe47b",
					"depositAmount(uint256)": "87f8ab26",
					"depositerBalance()": "2d9e0fde",
					"token()": "fc0c546a",
					"withdrawAmount(uint256)": "0562b9f7"
				}
			},
			"storageLayout": {
				"storage": [
					{
						"astId": 144,
						"contract": "Contracts/Bank.sol:Bank",
						"label": "token",
						"offset": 0,
						"slot": "0",
						"type": "t_contract(CreateToken)393"
					},
					{
						"astId": 148,
						"contract": "Contracts/Bank.sol:Bank",
						"label": "customerBalance",
						"offset": 0,
						"slot": "1",
						"type": "t_mapping(t_address,t_uint256)"
					}
				],
				"types": {
					"t_address": {
						"encoding": "inplace",
						"label": "address",
						"numberOfBytes": "20"
					},
					"t_contract(CreateToken)393": {
						"encoding": "inplace",
						"label": "contract CreateToken",
						"numberOfBytes": "20"
					},
					"t_mapping(t_address,t_uint256)": {
						"encoding": "mapping",
						"key": "t_address",
						"label": "mapping(address => uint256)",
						"numberOfBytes": "32",
						"value": "t_uint256"
					},
					"t_uint256": {
						"encoding": "inplace",
						"label": "uint256",
						"numberOfBytes": "32"
					}
				}
			},
			"userdoc": {
				"kind": "user",
				"methods": {},
				"version": 1
			}
		}
	}
}